:1000000034C0000057C0000055C0000053C00000BD
:1000100051C000004FC000004DC000004BC00000A8
:1000200049C0000047C0000045C0000043C00000B8
:1000300041C000003FC000003DC000003BC00000C8
:10004000C5C3000037C00000B3C1000033C20000C8
:1000500031C000002FC000002DC000002BC00000E8
:1000600029C0000027C000000E0211241FBECFEFE0
:10007000D8E0DEBFCDBF11E0A0E0B1E0E6E5FEE0F4
:1000800002C005900D92A433B107D9F721E0A4E393
:10009000B1E001C01D92AE3DB207E1F710E0C5E34B
:1000A000D0E003C02197FE0197D4C433D107D1F724
:1000B00081D3CFC6A5CF26E040E855E260E070E0EE
:1000C00084E391E06BC0CF93DF93CDB7DEB7629747
:1000D0000FB6F894DEBF0FBECDBF6CE171E0CE016C
:1000E0000D9622D3BE01635F7F4FCE01019651D39F
:1000F00060E271E0CE010196DFD2BC01CE0107962D
:1001000040D3CE01019651D3BE01695F7F4F84E396
:1001100091E050D268EE73E080E090E000D4CE0130
:1001200007963FD3CE010D963CD362960FB6F89456
:10013000DEBF0FBECDBFDF91CF910895DC015C968D
:100140008C915C97FD01E80FF11DE35AFF4F208170
:100150005C968C915C9790E001968F7390705C96A2
:100160008C935C975696ED91FC915797208350960F
:10017000ED91FC9151978081806480835B969C9186
:100180005B975C968C915C97981739F45296ED9139
:10019000FC91539780818F7D80830895DF92EF9249
:1001A000FF920F931F93CF93DF93EC017A018B01A2
:1001B000D22EE889F98982E08083403081EE5807A9
:1001C00080E0680780E0780799F060E079E08DE3EF
:1001D00090E0A8019701DED32150304040405040CC
:1001E000569547953795279580E12030380790F050
:1001F000E889F989108260E874E88EE190E0A8014E
:100200009701C8D321503040404050405695479503
:1002100037952795EC85FD853083EE85FF85208316
:10022000188EEC89FD89D082EA89FB898081806102
:100230008083EA89FB89808188608083EA89FB89E1
:10024000808180688083EA89FB8980818F7D8083BB
:10025000DF91CF911F910F91FF90EF90DF90089564
:10026000FC01218D828D30E0205C3F4F281B31093D
:100270002F733070C9010895FC01918D828D9817FC
:1002800019F42FEF3FEF06C0828DE80FF11D858D29
:10029000282F30E0C9010895DC0159969C915997A7
:1002A0005A968C915A97981719F42FEF3FEF10C078
:1002B0005A968C915A97FD01E80FF11D958D5A962B
:1002C0008C915A978F5F8F735A968C93292F30E0B9
:1002D000C9010895CF93DF93EC01888D882359F4E9
:1002E00018C08C9185FF09C0E889F989808185FF54
:1002F00004C0CE0123DFAA89BB898C9185FD05C08E
:10030000E889F989808186FD04C00FB607FEE9CF30
:10031000F4CFDF91CF9108950F931F93CF93DF9385
:10032000EC01062F81E0888F9B8D8C8D981771F5DD
:10033000E889F989808185FF29C0EE89FF8960837A
:10034000E889F9898081806419C00FB607FC07C06D
:10035000E889F989808185FF02C0CE01EFDE8C8DAE
:10036000181799F38B8DFE01E80FF11DE35AFF4F2B
:1003700000831B8FEA89FB8980818062808381E012
:1003800090E0DF91CF911F910F9108951B8D1F5F1A
:100390001F73E5CF81E592E0892B49F080E090E082
:1003A000892B29F07ED0882311F00E940000089547
:1003B0001F920F920FB60F9211242F938F939F933A
:1003C000EF93FF93E0914401F0914501808182FD1C
:1003D00016C0E0914A01F0914B01208190914D01AE
:1003E0009F5F9F7380914E01981771F0E0914D01CE
:1003F000F0E0EC5CFE4F258F90934D0105C0E0913D
:100400004A01F0914B01E081FF91EF919F918F9113
:100410002F910F900FBE0F901F90189510923701DB
:100420001092360188EE93E0A0E0B0E080933801AE
:1004300090933901A0933A01B0933B0188E291E097
:10044000909335018093340185EC90E090934101C5
:100450008093400184EC90E09093430180934201AB
:1004600080EC90E0909345018093440181EC90E012
:10047000909347018093460182EC90E0909349016C
:100480008093480186EC90E090934B0180934A0161
:1004900010924D0110924E0110924F011092500196
:1004A000089584E391E0DCDE20E0892B09F021E06F
:1004B000822F08951F920F920FB60F9211242F933F
:1004C0003F934F935F936F937F938F939F93AF93DC
:1004D000BF93EF93FF9384E391E030DEFF91EF91C0
:1004E000BF91AF919F918F917F916F915F914F914C
:1004F0003F912F910F900FBE0F901F901895CF92A4
:10050000DF92EF92FF920F931F93CF93DF937C01C3
:100510008B016A01C0E0D0E00FC0D701ED91FC91E2
:100520000190F081E02DC701D8016C910995892BCC
:1005300031F00F5F1F4F2196CC16DD0671F7CE010B
:10054000DF91CF911F910F91FF90EF90DF90CF90AF
:100550000895CF93DF93FB01EC01A881B9816081FD
:100560007181448155811296ED91FC911397099503
:10057000DF91CF910895CF93DF93EC016115710561
:1005800019F420E030E00FC0DB010D900020E9F706
:100590001197A61BB70BE881F9810280F381E02D4A
:1005A000AD0109959C01C901DF91CF91089564E0E7
:1005B00071E0E1CFEF92FF920F931F937C01C9DFAF
:1005C0008C01C701F4DF9C01200F311FC9011F916D
:1005D0000F91FF90EF9008950F931F93CF93DF93A8
:1005E000EC018B016F5F7F4F8881998128D3009741
:1005F00011F480E005C0998388831B830A8381E01E
:10060000DF91CF911F910F910895CF93DF93EC016C
:1006100088819981892B29F08A819B818617970788
:1006200058F4CE01D9DF882341F08C819D81892B3C
:1006300019F4E881F981108281E0DF91CF9108956A
:10064000EF92FF920F931F93CF93DF93EC017B0107
:100650006C817D81E114F104B1F04115510589F0FF
:100660008A01060F171FB801D0DF882361F0888147
:1006700099812C813D81820F931FB701ACD31D83DB
:100680000C8381E001C080E0DF91CF911F910F9139
:10069000FF90EF900895CF93DF93EC0188819981CB
:1006A000009709F034D2198218821D821C821B82A5
:1006B0001A82DF91CF9108950F931F93182F092F5E
:1006C0006115710559F0DB010D900020E9F71197D4
:1006D000A61BB70BAD01B4DF882319F4812F902F2F
:1006E000DADF812F902F1F910F910895EF92FF92E3
:1006F0000F931F93CF93DF93EC017B018A01BA0123
:1007000084DF882319F4CE01C6DF06C01D830C8365
:1007100088819981B7015FD3CE01DF91CF911F917D
:100720000F91FF90EF900895CF93DF93EC01198222
:1007300018821B821A821D821C826115710549F084
:10074000DB010D900020E9F71197A61BB70BAD0157
:10075000CDDFDF91CF910895CF93DF93EC01FB01C3
:100760008617970751F0608171816115710521F03D
:1007700044815581BBDF01C08EDFCE01DF91CF9177
:100780000895FC0111821082138212821582148254
:10079000E3CFFC011182108213821282158214822F
:1007A000DBCFFC0180819181B2C1FC01808191810C
:1007B000AEC10895CF93DF9377D0FBDF7CDCCAEC2A
:1007C000D1E081DC2097E9F3E5DDFBCF1F920F92AA
:1007D0000FB60F9211242F933F938F939F93AF9354
:1007E000BF938091D5019091D601A091D701B0918E
:1007F000D8013091D9010196A11DB11D232F2D5F84
:100800002D3720F02D570196A11DB11D2093D90140
:100810008093D5019093D601A093D701B093D801CE
:100820008091D1019091D201A091D301B091D401D6
:100830000196A11DB11D8093D1019093D201A09387
:10084000D301B093D401BF91AF919F918F913F910C
:100850002F910F900FBE0F901F9018959FB7F8948F
:100860002091D1013091D2014091D3015091D40116
:1008700086B5A89B06C08F3F21F02F5F3F4F4F4F9B
:100880005F4F9FBF542F432F322F2227280F311D38
:10089000411D511D82E0220F331F441F551F8A95B1
:1008A000D1F7B901CA010895789484B5826084BDF6
:1008B00084B5816084BD85B5826085BD85B5816064
:1008C00085BDEEE6F0E0808181608083E1E8F0E0C4
:1008D0001082808182608083808181608083E0E8F3
:1008E000F0E0808181608083E1EBF0E080818460D2
:1008F0008083E0EBF0E0808181608083EAE7F0E0D4
:100900008081846080838081826080838081816037
:1009100080838081806880831092C1000895AF92A7
:10092000BF92CF92DF92EF92FF920F931F937B01C2
:100930008C0194DF5B016C011EC02BD012C00894A7
:10094000E108F1080109110988EE93E0A0E0B0E0A8
:10095000A80EB91ECA1EDB1EE114F1040105110523
:1009600051F07CDF6A197B098C099D09685E734030
:100970008040904020F7E114F10401051105E9F6EB
:100980001F910F91FF90EF90DF90CF90BF90AF90AD
:1009900008950895A1E21A2EAA1BBB1BFD010DC0EC
:1009A000AA1FBB1FEE1FFF1FA217B307E407F5071F
:1009B00020F0A21BB30BE40BF50B661F771F881FFB
:1009C000991F1A9469F760957095809590959B0191
:1009D000AC01BD01CF010895EE0FFF1F0590F4910A
:1009E000E02D0994CF93DF938230910510F482E0DB
:1009F00090E0E091DC01F091DD0120E030E0C0E02A
:100A0000D0E0309711F14081518148175907C0F06B
:100A10004817590761F482819381209719F09B83CD
:100A20008A832BC09093DD018093DC0126C02115C1
:100A3000310519F04217530718F49A01BE01DF017E
:100A4000EF010280F381E02DDCCF2115310509F1A2
:100A5000281B390B2430310590F412968D919C910E
:100A600013976115710521F0FB019383828304C004
:100A70009093DD018093DC01FD01329644C0FD01BD
:100A8000E20FF31F81939193225031092D933C93F0
:100A90003AC02091DA013091DB01232B41F42091FF
:100AA0001801309119013093DB012093DA01209174
:100AB0001601309117012115310541F42DB73EB7CC
:100AC00040911A0150911B01241B350BE091DA0172
:100AD000F091DB01E217F307A0F42E1B3F0B281760
:100AE000390778F0AC014E5F5F4F2417350748F0A7
:100AF0004E0F5F1F5093DB014093DA018193919376
:100B000002C0E0E0F0E0CF01DF91CF9108950F93B4
:100B10001F93CF93DF93009709F48CC0FC013297A9
:100B2000138212820091DC011091DD010115110583
:100B300081F420813181820F931F2091DA0130915D
:100B4000DB012817390779F5F093DB01E093DA012F
:100B500071C0D80140E050E0AE17BF0750F41296C4
:100B60002D913C911397AD012115310509F1D90162
:100B7000F3CF9D01DA013383228360817181860F77
:100B8000971F8217930769F4EC0128813981260F9A
:100B9000371F2E5F3F4F318320838A819B81938350
:100BA0008283452B29F4F093DD01E093DC0142C000
:100BB0001396FC93EE931297ED01499159919E0182
:100BC000240F351FE217F30771F480819181840FA0
:100BD000951F029611969C938E9382819381139612
:100BE0009C938E931297E0E0F0E0D80112968D91DD
:100BF0009C911397009719F0F8018C01F6CF8D9115
:100C00009C9198012E5F3F4F820F931F2091DA0134
:100C10003091DB012817390769F4309729F41092D5
:100C2000DD011092DC0102C0138212821093DB01FD
:100C30000093DA01DF91CF911F910F910895A0E009
:100C4000B0E0E4E2F6E0D2C0EC01009719F4CB0189
:100C5000C9DEB4C0FC01E60FF71F9C012250310928
:100C6000E217F30708F4A8C0D9010D911C91119760
:100C700006171707A8F00530110508F49BC0C80136
:100C800004978617970708F495C002501109061BB0
:100C9000170B019311936D937C93CF0138DF8AC0BA
:100CA0005B01A01AB10A4C01800E911EA091DC01DB
:100CB000B091DD0140E050E0E12CF12C109709F4F7
:100CC0004AC0A815B905D1F56D907C9011976301C4
:100CD00082E0C80ED11CCA14DB0480F1A3014A19BA
:100CE0005B096A0182E0C80ED11C1296BC90129773
:100CF0001396AC91B5E0CB16D10440F0B282A38339
:100D000051834083D9016D937C930AC00E5F1F4FBE
:100D1000C301800F911FF90191838083EB2DFA2F7E
:100D2000E114F10431F0D7011396FC93EE9312977E
:100D300041C0F093DD01E093DC013CC08D919C91BA
:100D400011974817590708F4AC017D0112960D90D0
:100D5000BC91A02DB3CF8091DA019091DB01881571
:100D60009905E1F446175707C8F480911601909150
:100D70001701009741F48DB79EB740911A01509129
:100D80001B01841B950BE817F907B0F4F093DB0106
:100D9000E093DA01F901718360830CC0CB0122DE9C
:100DA0007C01009749F0A801BE010CD0CE01AFDE56
:100DB000C70104C0CE0102C080E090E0CDB7DEB72D
:100DC000EEE030C0FB01DC0102C001900D92415009
:100DD0005040D8F70895FB01DC0101900D920020EE
:100DE000E1F708952F923F924F925F926F927F9218
:100DF0008F929F92AF92BF92CF92DF92EF92FF922B
:100E00000F931F93CF93DF93CDB7DEB7CA1BDB0BD6
:100E10000FB6F894DEBF0FBECDBF09942A8839887B
:100E200048885F846E847D848C849B84AA84B98482
:100E3000C884DF80EE80FD800C811B81AA81B9818E
:100E4000CE0FD11D0FB6F894DEBF0FBECDBFED01A2
:060E50000895F894FFCFA5
:100E5600464F4F000D0A006E616E00696E66006FA8
:100E66007666002E00000000DE018000415344003B
:100E760053414400000000008C017F0230014C0108
:040E86003C016A01C0
:00000001FF
