:100000006BC0000091C000008FC000008DC00000D8
:100010008BC0000089C0000087C0000085C00000C0
:1000200083C0000081C000007FC000007DC00000D0
:100030007BC0000079C0000077C0000075C00000E0
:100040000C94A41471C000000C949D110C94CF1159
:100050006BC0000069C0000067C0000065C0000000
:1000600063C0000061C00000000000080002010041
:100070000003040700000000000000000102040863
:100080001020408001020408102001020408102002
:10009000040404040404040402020202020203032E
:1000A00003030303000000002300260029000000D2
:1000B0000000250028002B0000000000240027007D
:1000C0002A007C0187019105C80A150B040E100E49
:1000D0001A0E6D10FD119A1211241FBECFEFD8E039
:1000E000DEBFCDBF12E0A0E0B1E0E2E8F7E302C07E
:1000F00005900D92A832B107D9F723E0A8E2B2E04B
:1001000001C01D92AC33B207E1F710E0CCE6D0E0BD
:1001100004C02197FE010E94DC16C136D107C9F741
:100120000E9497140C94BF1B6BCFCF93DF9326E0F4
:1001300040E855E260E070E08CE892E00E943A11FD
:100140008FE690E00E94A314EC0162E070E0C6D15B
:10015000D0932D02C0932C028FE690E00E94A3144E
:10016000EC0164E070E0BAD1D0932B02C0932A0274
:1001700083E290E00E94A314EC01D4D0D093290232
:10018000C0932802DF91CF910895CF93DF93CDB72D
:10019000DEB7EE970FB6F894DEBF0FBECDBF60910D
:1001A0002C0270912D02CE014A9611D26CE171E0C1
:1001B000CE0101960E94E213BE01665E7F4FCE0122
:1001C00001960E943F1464E271E00E945014BC0149
:1001D000CE01C9960E940B14CE0101960E947B139A
:1001E000CE014A960E947B1360912A0270912B02E5
:1001F000CE014A96ECD161E271E0CE0101960E94F7
:10020000E213BE01665E7F4FCE0101960E943F144D
:1002100064E271E00E945014BC01CE01C3960E94BA
:100220000B14CE0101960E947B13CE014A960E94C8
:100230007B1366E271E0CE0101960E94E213BE01DB
:10024000675C7F4FCE0101960E943F14BC018CE891
:1002500092E00E94FD12CE0101960E947B136CE297
:1002600071E0CE0101960E94E213BE016D5C7F4FEA
:10027000CE0101960E943F14BC018CE892E00E94DE
:10028000FD12CE0101960E947B1320E030E049E18F
:1002900050E0BE01665E7F4FCE01C9960E94671492
:1002A00020E030E049E150E0BE016F5F7F4FCE01BA
:1002B000C3960E946714BE01665E7F4F809128023C
:1002C00090912902C1D0BE016F5F7F4F80912802BB
:1002D00090912902B9D0CE01C3960E947B13CE0122
:1002E000C9960E947B13EE960FB6F894DEBF0FBE40
:1002F000CDBFDF91CF9108950F9300E020E040E063
:1003000060E08EE292E00E9473120F9108950F93C5
:1003100000E020E040E060E084E392E00E9473129D
:100320000F910895CF92DF92EF92FF920F931F9358
:10033000CF93DF93CDB7DEB7AE970FB6F894DEBF9D
:100340000FBECDBF6C010E94FC0FC6014B960E94F0
:100350006912BE01655D7F4F8EE392E0C2D3BE019C
:10036000695D7F4F8EE392E0D4D3BE016D5D7F4F18
:100370008EE392E0C6D3BE01675E7F4F8EE392E0CC
:10038000A8D3BE01615E7F4F8EE392E0B2D3BE017F
:10039000695D7F4FCE0101960E947F12BE016D5DA7
:1003A0007F4FCE0107960E947F12BE01615E7F4F94
:1003B000CE010D960E947F12BE01655D7F4FCE017A
:1003C00043960E947F12CE0101967C018E01095F47
:1003D0001F4F9E01235F3F4FAE014D5E5F4FBE0139
:1003E000675E7F4F84E692E00E94AF0D01EF21E04F
:1003F00048E06AE0C7010E9473128B819C81AD8145
:10040000BE81F601858F968FA78FB0A383EB95E110
:1004100092A381A363EB75E1C6010E94EB0E62E338
:1004200071E08CE892E00E940D13AE960FB6F8943E
:10043000DEBF0FBECDBFDF91CF911F910F91FF9017
:10044000EF90DF90CF900895EF92FF920F931F935C
:10045000CF93DF9300D000D000D0CDB7DEB78C01B2
:100460007B01FC0141A152A187E192E09A8389833B
:10047000858D968DA78DB0A18B839C83AD83BE8324
:10048000BE016F5F7F4FC8010E946F0EE114F1043F
:1004900061F0F70101900020E9F73197AF014E19A3
:1004A0005F09B701C8010E94790EC8010E94760E4B
:1004B00026960FB6F894DEBF0FBECDBFDF91CF9169
:1004C0001F910F91FF90EF900895FC01128213820B
:1004D000148212861186108617820895EF92FF9279
:1004E0001F93CF93DF931F92CDB7DEB77C01162FFA
:1004F00060E0812F79830E94BC15F7011083798118
:100500007183E759FF4F88EC90E0918380833296A6
:1005100080E990ED91838083F70116861586148615
:100520001386C7010F90DF91CF911F91FF90EF903D
:10053000CCCFCF93DF93EC01FC01E559FF4F208135
:10054000318140E050E061E088810E9427169B01E4
:10055000FE01E359FF4F71836083672B91F0C75908
:10056000DF4F88819981AC014053584F42175307A0
:1005700058F488579C4E8217930748F482E090E025
:1005800008C08FEF9FEF05C080E090E002C081E0DF
:1005900090E0DF91CF9108950F931F93CF93DF9356
:1005A0008C01CFEFDFEFC801C4DF229719F482304E
:1005B000910539F0EC01CF3F8FEFD807A1F780E02C
:1005C00001C081E0DF91CF911F910F9108956F924B
:1005D0007F928F929F92AF92BF92CF92DF92EF92D3
:1005E000FF920F931F93CF93DF93CDB7DEB7CA5A15
:1005F000D1090FB6F894DEBF0FBECDBF6C017B01F1
:100600005E012FE9A20EB11C8CE0EAE0F1E0D50119
:1006100001900D928A95E1F7CB0157DFC701BCDF4E
:100620004E0180E5880E911C340198E0690E711C22
:100630008401C7017EDFD4018D934D01A615B70556
:10064000C1F7F8018681880F982F990F990F890FAC
:100650009781F4E19F9F800D1124D80111969C9100
:100660001197890F15969C911597292F220F220F0C
:10067000920F890F13969C911397990F12962C91B4
:100680001297920F990F890F880F9C91890FF7018C
:100690008283C7014EDF029719F063E471E0F6C070
:1006A0004801F9E08F0E911C380122E1620E711CA5
:1006B000C7013FDFD4018D934D01A615B705C1F7E2
:1006C000C70137DF029719F067E571E0DFC0F80175
:1006D0008785880F982F990F990F890F9089F4E1DA
:1006E0009F9F800D1124D8011A969C911A97890F0B
:1006F0001E969C911E97292F220F220F920F890F71
:100700001C969C911C97990F1B962C911B97920FEE
:10071000990F890F880F19969C91890FF701838390
:100720004801F3E18F0E911C38012CE1620E711C1F
:10073000C701FFDED4018D934D01A615B705C1F7A2
:10074000F801918D808D282F220F220F820FFAE061
:100750009F9F800D1124D80154969C915497890F26
:1007600056969C915697990F55962C915597920FA6
:10077000990F890F880F53969C91890FF7018483F5
:10078000C701D7DE029719F06BE671E07FC0480120
:10079000FDE18F0E911C380126E2620E711CC7012B
:1007A000C8DED4018D934D01A615B705C1F7C70169
:1007B000C0DE029719F06DE771E068C04801B7E24A
:1007C0008B0E911C3801E0E36E0E711CC701B1DE87
:1007D000D4018D934D01A615B705C1F7C701A9DE58
:1007E000029719F065E971E051C0F801268DA78DD7
:1007F000B0A192A073A164A155A147A130A5858D98
:1008000090E0820F911D820F911DF4E0AF9F800D4B
:10081000911D112428E0B29F800D911D1124AAE0A2
:100820009A9E800D911D1124B4E17B9F800D911D36
:100830001124E8E26E9F800D911D1124F0E55F9F69
:10084000800D911D112424E6429F800D911D1124DD
:10085000A8EC3A9F800D911D1124F70192878187A2
:100860004801F1E38F0E911C38012AE3620E711CDE
:10087000C7015FDED4018D934D01A615B705C1F701
:10088000C70157DE029731F06DEA71E0C6010E94A0
:10089000E213AEC0F80182A9E3A9D801D4967C91F5
:1008A000D497D6966C91D697D7965C91D797D896D1
:1008B0004C91D897D9969C91D997D1962C9130E0AC
:1008C0002053384F280F311D280F311DB4E0EB9F06
:1008D000200D311D1124E8E07E9F200D311D1124D3
:1008E000FAE06F9F200D311D112484E1589F200DE7
:1008F000311D1124A8E24A9F200D311D1124B0E5BD
:100900009B9F200D311D1124F7013087278383859C
:10091000948528173907E9F034872387C901837044
:100920009927892BB1F4C90164E670E00E94A616EC
:10093000892B29F08DE1D50111968C930AC0C9014C
:1009400060E971E00E94A616892BA1F38CE1F50104
:100950008183D70119968D919C911A971D964D917F
:100960005C911E9784179507A1F01E969C938E9319
:100970001D97F501BF016A197B09419150E04817A5
:10098000590718F4841B950BF5CF6F5FF70165834A
:100990008683D70112968C9112971F928F9313968C
:1009A0008C9113971F928F9314968C9114971F928A
:1009B0008F9316968C9116971F928F9315968C9104
:1009C0001F928F933F932F938FEB91E09F938F9381
:1009D0008E010F5F1F4F1F930F930E94F118B801F4
:1009E000C6010E94E2130FB6F894DEBF0FBECDBF62
:1009F000C601C655DF4F0FB6F894DEBF0FBECDBFA0
:100A0000DF91CF911F910F91FF90EF90DF90CF90EA
:100A1000BF90AF909F908F907F906F900895CF93ED
:100A2000CFB7F89480913D02811127C0EAE9F0E048
:100A30008491E6E8F0E09491E82FF0E0EE0FFF1FDC
:100A4000E854FF4FA591B491EC91E92321F461E0C2
:100A50008AE00E94F81561E08AE00E94BC158CB51E
:100A600080618CBD8CB580648CBD61E08DE00E949E
:100A7000BC1561E08BE00E94BC1580913D028F5F48
:100A800080933D02CFBFCF910895CF92DF92EF9236
:100A9000FF920F931F93CF93DF938B016901EB01BB
:100AA0007A01E61AF70ACE01801B910B8C159D0581
:100AB0003CF4C7018C0F9D1F0E94801B8993F3CFCC
:100AC000DF91CF911F910F91FF90EF90DF90CF902A
:100AD0000895FC01408151814F5F5F4F26E030E077
:100AE000D4CFFC0140815181485F5F4F24E030E06A
:100AF000CCCFFC0140815181445F5F4F24E030E066
:100B0000C4CFFC0140815181405F5F4F24E030E061
:100B1000BCCFFC01408151814C5E5F4F24E030E04E
:100B2000B4CF0F9300E020E040E060E080E492E08A
:100B30000E94731210923F0210923E020F9108958C
:100B40000F93FC0130E080E092E1AAE7B0E04817A3
:100B500059076A077B0740F4B695A795979587953F
:100B60003F5F3630A1F737E091E09327222311F061
:100B700020E501C020E7892F86950C70082B022BF9
:100B80000083917091830F91089520913C0222235C
:100B900099F04FB7F89420913C02213059F42DB3CD
:100BA00020933A023DB320913B02209523232DBB95
:100BB0004FBF02C040933A028CBD9DBD0895809105
:100BC0003C02882361F09FB7F89420913C02809109
:100BD0003A02213019F48DBB9FBF08958FBF08954D
:100BE00090E0982F882744E050E0845F9B4FFCC240
:100BF00090E00496982F8827860F971F1EC362E007
:100C000070E0F6CF9B0190E00496982F8827642F20
:100C1000820F931F5AC2CF93DF93C82FD62F472F2F
:100C200064E070E0EFDF4D2F65E070E08C2FDF9126
:100C3000CF91E8CF462F62E070E0E4CFCF93DF930F
:100C4000C82FD62F472F60E170E0DCDF4D2F61E128
:100C500070E08C2FDF91CF91D5CF0F931F93CF935F
:100C6000DF9300D01F92CDB7DEB7182F00E021E050
:100C700040E059E06DE370E0CE01019661DF8981CB
:100C80009A8183DF63E070E0812FB2DF8B8397DF8F
:100C90008B810F900F900F90DF91CF911F910F914B
:100CA00008950F931F93CF93DF9300D0CDB7DEB796
:100CB000182F00E021E040E059E06DE370E0CE0144
:100CC00001963EDF89819A8160DF40E150E0612F2B
:100CD00088E492E04FD46FEF812FACDF70DF0F908C
:100CE0000F90DF91CF911F910F910895CF92DF92D6
:100CF000EF92FF920F931F93CF93DF9300D0CDB766
:100D0000DEB79FEF960F953088F5F22E6A01E62E3A
:100D1000182FC7DF00E021E040E059E06DE370E00C
:100D2000CE0101960DDF89819A812FDF4E2D4F294B
:100D300060E070E0812F66DFC114D10411F0B601CC
:100D40000AC060914602709147026F5F7F4F7093B7
:100D5000470260934602812F5EDF41E050E0612F41
:100D600088E492E007D42BDF81E001C080E00F909F
:100D70000F90DF91CF911F910F91FF90EF90DF9037
:100D8000CF900895AF92BF92CF92DF92EF92FF92F1
:100D90000F931F93CF93DF9300D0CDB7DEB7182FFB
:100DA0005B016A0100E021E040E059E06DE370E0A2
:100DB000CE010196C5DE89819A81E7DE612F88E444
:100DC00092E09BD27C01009799F463E070E0812F60
:100DD0000FDF843109F18823F9F021E030E08C3114
:100DE00011F420E030E0EE24FF24E21AF30A14C0EC
:100DF000C816D9060CF476011E141F046CF400E02A
:100E00009701A501612F88E492E069D340E450E0A6
:100E1000612F88E492E0AED3D2DEC7010F900F902D
:100E2000DF91CF911F910F91FF90EF90DF90CF90C6
:100E3000BF90AF9008950F931F93CF93DF9300D08F
:100E400000D0CDB7DEB7182F00E021E040E059E038
:100E50006DE370E0CE01019673DE89819A8195DEA3
:100E6000612F88E492E049D28B839C83A8DE8B813A
:100E70009C810F900F900F900F90DF91CF911F9159
:100E80000F910895EF92FF920F931F93CF93DF93EB
:100E900000D0CDB7DEB7182F7B0100E021E040E0A5
:100EA00059E06DE370E0CE0101964ADE89819A81B6
:100EB0006CDE01E021E030E0A701612F88E492E0E0
:100EC0000ED37DDE81E090E00F900F90DF91CF9107
:100ED0001F910F91FF90EF9008958F929F92AF9284
:100EE000BF92DF92EF92FF920F931F93CF93DF9306
:100EF00000D0CDB7DEB7D82E5B014A01790100E002
:100F000021E040E059E06DE370E0CE01019618DE8B
:100F100089819A813ADE6D2D88E492E0BED18E15EA
:100F20009F0528F46D2D88E492E0B7D17C018701FC
:100F30009401A5016D2D88E492E0F9D140DEC7014E
:100F40000F900F90DF91CF911F910F91FF90EF9035
:100F5000DF90BF90AF909F908F900895CF92DF92D7
:100F6000EF92FF920F931F93CF93DF9300D0CDB7F3
:100F7000DEB7FB019081911109C09181911106C0EA
:100F80009281911103C093819923E1F0411551059C
:100F9000C9F06A017F01182F00E021E040E059E02C
:100FA0006DE370E0CE010196CBDD89819A81EDDDA4
:100FB000B701812F15DEB601812F40DE00DE81E012
:100FC00090E002C080E090E00F900F90DF91CF9111
:100FD0001F910F91FF90EF90DF90CF9008950F93A6
:100FE0001F93CF93DF9300D0CDB7DEB7182F00E06B
:100FF00021E040E059E06DE370E0CE010196A0DD14
:1010000089819A81C2DD40E250E0612F88E492E05C
:10101000B1D2812FF4DD84FD1BC0812FF0DD83FF71
:1010200007C068E1812F06DECADD80E090E016C0CF
:10103000C6DD0E94951400E021E040E059E06DE338
:1010400070E0CE0101967CDD89819A819EDDE1CF41
:1010500060E1812FEFDDB3DD81E090E00F900F9034
:10106000DF91CF911F910F9108958EBD00000DB4B7
:1010700007FEFDCF8EB50895E6E8F0E08491EAE939
:10108000F0E0E491F0E0EE0FFF1FE255FF4FA59175
:10109000B491EC912E2F30E0E82FF0E0E095F09540
:1010A000E223F323EC930895E6E8F0E08491EAE983
:1010B000F0E0E491F0E0EE0FFF1FE255FF4FA59145
:1010C000B491EC91E82BEC9308951F93CF93DF93A9
:1010D00000D0CDB7DEB7182F6A839983CDDF80EFBC
:1010E000C4DF9981892FC1DF812FBFDF6A81862FFD
:1010F000BCDFDADF81E00F900F90DF91CF911F917D
:101100000895CF93DF93EC016CE271E080E090E012
:101110000E941F1584DCE6E8F0E08491EAE9F0E043
:10112000E491F0E0EE0FFF1FE854FF4FA591B4915A
:10113000EC91E82BEC9380913C02882399F02FB737
:10114000F89480913C02813059F48DB380933A0237
:101150009DB380913B02809589238DBB2FBF02C038
:1011600020933A0280E58CBD1DBC60E880E090E0F1
:10117000ACDF65E58BE190E0A8DF65E58AE190E012
:10118000A4DF80913C02882351F09FB7F89420910E
:101190003C0280913A02213029F58DBB9FBF80E04F
:1011A00090E49983888380E090E69987888780E03F
:1011B00098E49B838A8380E098E69B878A8780E017
:1011C00090E59D838C8380E090E79D878C8780E00D
:1011D00098E59F838E8380E098E79F878E87DF91D5
:1011E000CF9108958FBFDBCFCF92DF92EF92FF9226
:1011F0000F931F93CF93DF93EC017A018B016C0166
:10120000C40ED51ECC15DD0571F036DF80EF2DDF65
:101210008D2F2BDF8C2F29DF2196F80181918F01F3
:1012200024DF42DFEFCFC701DF91CF911F910F91F4
:10123000FF90EF90DF90CF9008951F93CF93DF93AF
:101240001F92CDB7DEB7182F998316DF8FE00DDF21
:101250009981892F0ADF812F08DF80E006DF8983EB
:1012600023DF89810F90DF91CF911F9108951F9304
:10127000CF93DF93182F60E270E0BADCC82FD0E084
:1012800061E270E0812FB4DCDC2FCC279E01282B9B
:10129000C901DF91CF911F910895FF920F931F9382
:1012A000CF93DF93F62EC0E0D0E08F2DE0DF8C01EE
:1012B000892B19F08F2DDBDFEC01C017D107A9F7BF
:1012C000CE01DF91CF911F910F91FF9008951F9351
:1012D000CF93DF93182F66E270E08ADCC82FD0E04E
:1012E00067E270E0812F84DCDC2FCC279E01282B65
:1012F000C901DF91CF911F910895FF920F931F9322
:10130000CF93DF93F62EC0E0D0E08F2DE0DF8C018D
:10131000892B19F08F2DDBDFEC01C017D107A9F75E
:10132000CE01DF91CF911F910F91FF9008956F92A1
:101330007F928F929F92AF92BF92CF92DF92EF9265
:10134000FF920F931F93CF93DF931F92CDB7DEB71A
:10135000882E962E6A01590164E270E0892D9983E6
:1013600047DCE82EF12C65E270E0892D41DCFE2C93
:10137000EE24E82A37016C0C7D1CA3015770E82C81
:101380009981F92EE90CF11CE90CF11CF70180811F
:101390009181840F951F9A01200F311F2130384011
:1013A00090F060E078E06B01C41AD50AA601B5019F
:1013B0001BDFA8014C195D09B5016C0D7D1DF701FE
:1013C0008081918102C0A801B5010EDF060D171DB5
:1013D000412F64E270E0892D15DC402F65E270E05A
:1013E000892D0F90DF91CF911F910F91FF90EF907A
:1013F000DF90CF90BF90AF909F908F907F906F9035
:1014000001CCCF92DF92EF92FF920F931F93CF9375
:10141000DF93EC017A018B016C01C40ED51ECC1553
:10142000DD0579F029DE8FE020DE8D2F1EDE8C2F8A
:101430001CDE219680E019DEF80181938F0134DEF5
:10144000EECFC701DF91CF911F910F91FF90EF90E9
:10145000DF90CF900895AF92BF92CF92DF92EF923C
:10146000FF920F931F93CF93DF9300D0CDB7DEB7DA
:101470005A834983590129813A8137706C01C60E1C
:10148000D11CC60ED11CF60180859185820F931F59
:10149000A801420F531F4130584090F0E0E0F8E0BF
:1014A0007F01E21AF30AA701B501ABDFA8014E19CB
:1014B0005F09B5016E0D7F1DF6018085918502C023
:1014C000A801B5010F900F90DF91CF911F910F915F
:1014D000FF90EF90DF90CF90BF90AF9092CF8F9220
:1014E0009F92AF92BF92CF92DF92EF92FF920F93B3
:1014F0001F93CF93DF936C01962E5A017901802EB2
:1015000068E270E0892D74DBC82FD0E069E270E0FA
:10151000892D6EDBDC2FCC27C82B87019501AE010E
:10152000692DC60198DF811018C0CE0DDF1D4D2F2B
:1015300068E270E0892D66DB4C2F69E270E0892D4E
:10154000DF91CF911F910F91FF90EF90DF90CF909F
:10155000BF90AF909F908F9055CBDF91CF911F910F
:101560000F91FF90EF90DF90CF90BF90AF909F9042
:101570008F900895CF93C62F61E070E08C2F42DBEF
:1015800061E070E08C2F34DB8111FACFCF910895A8
:101590000F9300E020E040E060E088E592E0A3D710
:1015A0000F910895FB014281538164817581FC0193
:1015B0004283538364837583178216820895CF9381
:1015C000DF93FB0120E080E090E0AAE0319133233B
:1015D00001F160ED630F6A3080F4A89FB001A99F0C
:1015E000700D1124CB01C097830F911D37FD9A9583
:1015F0008F3F910559F350F313C03E3289F42330E5
:1016000079F0EA01C20FD11D8A832F5F80E090E05C
:10161000DDCF233029F4FA01858381E090E002C018
:1016200080E090E0DF91CF9108950F9300E020E0FB
:1016300040E060E08EE592E056D70F9108958F92DA
:101640009F92AF92BF92CF92DF92EF92FF920F9351
:101650001F93CF93DF9300D000D01F92CDB7DEB79A
:101660008C016B010E94EE14F80177836683762764
:10167000672776277A836983085F1F4F42E050E02F
:10168000BE016F5F7F4FC80134D381E090E09C833F
:101690008B8342E050E0BE016D5F7F4FC80129D3CC
:1016A00080E091E09C838B8342E050E0BE016D5F5F
:1016B0007F4FC8011ED31C821B8242E050E0BE0156
:1016C0006D5F7F4FC80115D342E050E0BE016D5FF2
:1016D0007F4FC8010ED342E050E0BE016D5F7F4FE7
:1016E000C80107D35601F5018081882319F1C6018D
:1016F0007C01FC0120810196211114C05701470192
:101700008C189D081814190484F48D8241E050E06F
:10171000BE016B5F7F4FC801ECD2A401B601C801C6
:10172000E8D203C02E3221F7E9CF6701FFEFCF1ACD
:10173000DF0AD9CF1D8241E050E0BE016B5F7F4FD1
:10174000C801D7D2E12CFF24F394FC82EB8242E063
:1017500050E0BE016D5F7F4FC801CBD2FC82EB82AF
:1017600042E050E0BE016D5F7F4FC801C2D281E010
:1017700090E00F900F900F900F900F90DF91CF910E
:101780001F910F91FF90EF90DF90CF90BF90AF909F
:101790009F908F9008954F925F926F927F928F9259
:1017A0009F92AF92BF92CF92DF92EF92FF920F93F0
:1017B0001F93CF93DF93CDB7DEB765970FB6F8943D
:1017C000DEBF0FBECDBF7C015B016A010E94EE143B
:1017D0002B013C018701085F1F4F4501A12CB12C53
:1017E000C80126D318161906A4F00E94EE14DC01D5
:1017F000CB0184199509A609B70988169906AA0686
:10180000BB06D0F062E370E080E090E00E941F151C
:10181000E7CFF7014281538164817581808D918D7D
:10182000A28DB38D481759076A077B0741F4848D51
:10183000958DC59721F406C02FEF3FEFE0C02EEF46
:101840003FEFDDC0C8011BD20C97D4F04CE050E054
:10185000BE016F5F7F4FC80187D26C818B8146D7F5
:101860009A8B898BF701E680F7806A8189813ED760
:10187000E816F90641F489899A8997FF04C008C0DF
:101880002DEF3FEFBCC0C80114D22CEF3FEFB7C023
:101890008F709270892B29F0C8010BD22BEF3FEF8C
:1018A000AEC068858F8122D75C01892B29F4C801DD
:1018B00000D22AEF3FEFA3C0E12CF12C6E818D8185
:1018C00015D7E816F90610F541E050E0BE01635F58
:1018D0007F4FC80149D28D8581110FC08D8581113F
:1018E000F3CFC80119D2C80117D2C80115D2C80157
:1018F00013D2FFEFEF1AFF0AE1CF8D859FEF980F0C
:101900009D87882359F3C80107D2F7CFE12CF12C2A
:1019100041E050E0BE016D5E7F4FC80125D28B894A
:10192000982F907C59F4882361F08B899FEF980F52
:101930009B8B882331F0C801EFD1F7CFC801ECD1E0
:101940001B8A8B898111E4CF42E050E0BE01615FC8
:101950007F4FC80109D242E050E0BE01635F7F4F74
:10196000C80102D2C801D8D1C801D6D1C801D4D18A
:10197000C801D2D142E050E0BE016F5E7F4FC80186
:10198000F3D18F85988981159140F1F42D853E859D
:1019900032272327322721303105B1F489899A89EA
:1019A0008115944029F0C80184D127EF3FEF27C06B
:1019B000B6016E5F7F4F44E050E0C8012C8B3D8B39
:1019C000D3D12C893D891BC0812C912C89899A897E
:1019D0009827892798278816990630F4C8019CD142
:1019E0008FEF881A980AF2CFEFEFEE1AFE0AEA1488
:1019F000FB0409F08DCFC8015CD126EF3FEFC90190
:101A000065960FB6F894DEBF0FBECDBFDF91CF91C4
:101A10001F910F91FF90EF90DF90CF90BF90AF900C
:101A20009F908F907F906F905F904F9008958F92CE
:101A30009F92AF92BF92CF92DF92EF92FF920F935D
:101A40001F93CF93DF9300D000D000D0CDB7DEB787
:101A50007C014B015A01B3DD8C01892B09F054C084
:101A6000F701428153816481758180916002909178
:101A70006102A0916202B0916302481759076A0798
:101A80007B0709F444C0AAD76701F8E0CF0ED11C48
:101A90006F7077277C5FC6019ED1813009F039C015
:101AA00087E192E09A838983F70182819381A481FF
:101AB000B5818B839C83AD83BE8345E350E0BE013B
:101AC0006F5F7F4FC6010BD1892B19F400E010E046
:101AD00018C0B401C701B3DD892BC1F3C60106D11B
:101AE000892BA1F383E0882E912CA50168E873E18E
:101AF000C70151DE8C01F1E08F1A910811F00196B7
:101B0000A1F3C601D7D005C001E010E002C00EEF7E
:101B10001FEFC80126960FB6F894DEBF0FBECDBFEB
:101B2000DF91CF911F910F91FF90EF90DF90CF90B9
:101B3000BF90AF909F908F90089544E050E0BC011B
:101B400081E090E051CB44E050E0BC0185E090E0C2
:101B50004BCB44E050E0BC018FE090E045CB8F924E
:101B60009F92AF92BF92CF92DF92EF92FF920F932C
:101B70001F93CF93DF9300D0CDB7DEB74C015A014E
:101B8000690188E492E069837A83BBDA80E590E0BA
:101B90000E94C50546E050E069817A8189E090E0C5
:101BA00023DBC5010296D5DFC8010296C6DFC70157
:101BB0000296C9DF04D8F60182819381A481B581A0
:101BC000F40182839383A483B5830F900F90DF91F8
:101BD000CF911F910F91FF90EF90DF90CF90BF902A
:101BE000AF909F908F90089527E132E0FC01318300
:101BF0002083FB014281538164817581FC01428312
:101C000053836483758308950F9300E020E040E0E0
:101C100060E084E792E067D484E692E00F9159C4D3
:101C20000F9300E020E040E060E08AE792E05BD4C0
:101C30000F9108950F9300E020E040E060E080E81D
:101C400092E051D40F910895DC01ED91FC91008C4C
:101C5000F18DE02D099427E132E0FC0131832083EE
:101C6000FB014089518962897389FC014283538356
:101C7000648375830895FC01848995890895FC0126
:101C8000818D928D0895CF93DF931F92CDB7DEB7EC
:101C90006983DC01ED91FC910280F381E02D41E04C
:101CA00050E0BE016F5F7F4F09950F90DF91CF919C
:101CB00008950895CF93DF93EC01888D843061F00F
:101CC0000E945106E88DF0E0EE0FFF1FE459FD4F32
:101CD0001182108284E0888FDF91CF910895FC01FA
:101CE000178A168A6E5F7F4F808D38C9FC01808D00
:101CF00076C9CF93DF93EC019A018E899F89AB015E
:101D0000BC01888DEAD82E893F89280F391F3F8B67
:101D10002E8BDF91CF9108950F931F93CF93DF9375
:101D20001F92CDB7DEB7FC01218D328D232B59F0E8
:101D30008C0141E050E0BE016F5F7F4F808D22D863
:101D4000181619061CF08FEF9FEF08C0F801818D5F
:101D5000928D0197928F818F898190E00F90DF9112
:101D6000CF911F910F910895CF93DF93FC01218DA7
:101D7000328D2115310519F48FEF9FEF11C0EC0161
:101D80004217530708F0A901888D0E94C206181651
:101D9000190694F7298D3A8D281B390B3A8F298F14
:101DA000DF91CF910895CF93DF931F92CDB7DEB728
:101DB000FC01218D328D232B41F0BE016F5F7F4FDF
:101DC000808D60D8898190E002C08FEF9FEF0F90E7
:101DD000DF91CF910895EF92FF921F93CF93DF93FE
:101DE000FC01208D243011F080E01CC07B01EC014F
:101DF00010E0812F0E942D06811102C0188F05C0AE
:101E00008831E1F31F5F1430A1F7888D843061F3CE
:101E1000FD86EC861A8E198E20E0A70162E00E94F2
:101E2000760681E0DF91CF911F91FF90EF900895AA
:101E30000F931F93CF93DF93CDB7DEB728970FB6DD
:101E4000F894DEBF0FBECDBF8C01F801818D928D5D
:101E5000892B49F0D801ED91FC910680F781E02DA6
:101E6000C8010995F2CF808D0E941B07181619062C
:101E70004CF548E050E0BE016F5F7F4FD8015896A7
:101E80008C910E94C2069C0118161906CCF4BE0162
:101E90006F5F7F4FC8010E9642D38D8190E0982FDF
:101EA00088272E81820F911DF801958B848B2F81BD
:101EB00030E0322F22278885280F311D328F218F65
:101EC000C90102C080E090E028960FB6F894DEBF0A
:101ED0000FBECDBFDF91CF911F910F9108958F92CB
:101EE0009F92AF92BF92CF92DF92EF92FF920F93A9
:101EF0001F93CF93DF9300D000D000D0CDB7DEB7D3
:101F0000FC01208D243009F063C06A017B018C0143
:101F100053E0852E54E0952EA12CB12CC4018DD90F
:101F2000811103C0F801A08E0AC08831D9F3FFEFF8
:101F3000AF1ABF0A9394E4E0AE16B10479F7F80142
:101F4000808D843009F444C096E0E6E1F1E0DE01E2
:101F5000119601900D929A95E1F7F70193819F7781
:101F60009C8394819D8395819E83B7016E5F7F4F93
:101F700090E0982F882744E050E0845F9B4F34D94D
:101F8000F801E08CF12CF4E0EF0EF11CFE2CEE24B5
:101F90006D2DC701409699D86C2DC701419695D8F3
:101FA000F801808D90E0982F882746E050E0BE0130
:101FB0006F5F7F4F8A5F9B4F17D9F801128E118E8A
:101FC00020E8A60162E0808D0E94760681E001C0D3
:101FD00080E026960FB6F894DEBF0FBECDBFDF912E
:101FE000CF911F910F91FF90EF90DF90CF90BF9016
:101FF000AF909F908F900895CF93DF93EC011B8259
:102000001A8288EE93E0A0E0B0E08C839D83AE83DB
:10201000BF8381EE91E099838883CE010E9659D2D9
:1020200084E0888FDF91CF910895CF92DF92EF9275
:10203000FF920F931F93CF93DF93CDB7DEB7AF9788
:102040000FB6F894DEBF0FBECDBF8C016B017A01D5
:10205000CE0101963ED2CE010996CEDFCE018A9600
:1020600038D264E672E0CE018496BEDDBE016C5DBE
:102070007F4FCE01019696DAAE01465D5F4FB60105
:10208000CE010196D4DC81309105C1F4D801ED91E7
:10209000FC910088F189E02D87E192E09DA38CA35B
:1020A0008CA59DA5AEA5BFA58EA39FA3A8A7B9A7E4
:1020B000A701BE016C5D7F4FC8010995AF960FB6B1
:1020C000F894DEBF0FBECDBFDF91CF911F910F916E
:1020D000FF90EF90DF90CF9008950F9300E020E005
:1020E00040E060E086E892E0FED10F910895FC01A7
:1020F000918D228D892F90E0805C9F4F821B9109EA
:102100008F7399270895FC01918D828D981731F076
:10211000828DE80FF11D858D90E008958FEF9FEF80
:102120000895FC01918D828D981761F0828DDF01F9
:10213000A80FB11D5D968C91928D9F5F9F73928FBA
:1021400090E008958FEF9FEF089584EF91E1892B40
:1021500041F080E090E0892B21F046D181110C9470
:1021600000000895FC01848DDF01A80FB11DA35A62
:10217000BF4F2C91848D90E001968F739927848FA7
:10218000A689B7892C93A089B1898C9180648C939E
:10219000938D848D981306C00288F389E02D808189
:1021A0008F7D80830895CF93DF93EC01888D882302
:1021B000C1F0EA89FB89808185FD05C0A889B989BC
:1021C0008C9186FD0EC00FB607FCF5CF808185FF90
:1021D000F2CFA889B9898C9185FFEDCFCE01C2DFFE
:1021E000E8CFDF91CF910895EF92FF920F931F9365
:1021F000CF93DF93EC0181E0888F9B8D8C8D9813BA
:1022000005C0E889F989808185FD23C0F62E0B8DF4
:1022100010E00F5F1F4F0F731127E02E8C8DE81217
:102220000BC00FB607FCFACFE889F989808185FFDA
:10223000F5CFCE0197DFF2CF8B8DFE01E80FF11DB8
:10224000E35AFF4FF0820B8FEA89FB89808180621D
:1022500007C0EE89FF896083E889F98980818064FD
:10226000808381E090E0DF91CF911F910F91FF90EB
:10227000EF900895CF92DF92EF92FF921F93CF934A
:10228000DF93EC016A017B01122FE889F98982E072
:1022900080834115514E61057105A9F060E079E038
:1022A0008DE390E0A701960165D5DA01C901019798
:1022B000A109B109B695A79597958795AC014115E8
:1022C00080E15807A0F0E889F989108260E874E895
:1022D0008EE190E0A70196014DD5BA01A9014150C8
:1022E0005109610971097695679557954795EC8570
:1022F000FD855083EE85FF854083188EEC89FD892E
:102300001083EA89FB89808180618083EA89FB8967
:10231000808188608083EA89FB89808180688083EE
:10232000EA89FB8980818F7D8083DF91CF911F9126
:10233000FF90EF90DF90CF9008951F920F920FB60D
:102340000F9211242F938F939F93EF93FF93E0911C
:102350009C02F0919D028081E091A202F091A30283
:1023600082FD12C090818091A5028F5F8F732091B2
:10237000A602821751F0E091A502F0E0E457FD4F6C
:10238000958F8093A50201C08081FF91EF919F916D
:102390008F912F910F900FBE0F901F9018951F9245
:1023A0000F920FB60F9211242F933F934F935F9389
:1023B0006F937F938F939F93AF93BF93EF93FF930D
:1023C0008CE892E0CFDEFF91EF91BF91AF919F91AA
:1023D0008F917F916F915F914F913F912F910F90CE
:1023E0000FBE0F901F9018958CE892E080DE21E0E0
:1023F000892B09F420E0822F0895ECE8F2E01382A3
:10240000128288EE93E0A0E0B0E084839583A683F7
:10241000B78387E092E09183808385EC90E0958795
:10242000848784EC90E09787868780EC90E0918B9E
:10243000808B81EC90E0938B828B82EC90E0958B8B
:10244000848B86EC90E0978B868B118E128E138E88
:10245000148E08958F929F92AF92BF92CF92DF9287
:10246000EF92FF920F931F93CF93DF937C018B0129
:102470006C0182E0C80ED11C4701E5E08E0E911C74
:10248000C0E0D0E0F60161916F014AE050E0C80180
:1024900027D15C016EE2C801A6D08A0D9B1DC80F32
:1024A000D91FC814D90471F74AE050E0F7016581DB
:1024B000C80116D18C0F9D1FDF91CF911F910F91F5
:1024C000FF90EF90DF90CF90BF90AF909F908F9054
:1024D000089527E132E0FC013183208312821382C8
:1024E0001482158208950F93FC0187E192E0918395
:1024F000808362834383248305830F91089527E1BA
:1025000032E0FC0131832083FB01408151816281F3
:102510007381FC0142835383648375830895FB01B7
:102520004081518162817381FC01428353836483C2
:1025300075830895E9E2F3E087E192E09183808377
:1025400012821382148215820895CF92DF92EF9245
:10255000FF920F931F93CF93DF936C017A018B014E
:10256000C0E0D0E0CE15DF0589F0D8016D918D0176
:10257000D601ED91FC910190F081E02DC601099505
:10258000892B11F47E0102C02196ECCFC701DF91A7
:10259000CF911F910F91FF90EF90DF90CF90089512
:1025A0006115710579F0FB0101900020E9F7319781
:1025B000AF01461B570BDC01ED91FC910280F381CA
:1025C000E02D099480E090E00895DC01ED91FC910C
:1025D000DB0114964D915C9115976D917C91028071
:1025E000F381E02D0994DC01ED91FC910190F081E3
:1025F000E02D099469E172E0D3CF0F931F93CF933D
:10260000DF93EC01E2DF8C01CE01F4DF800F911F3C
:10261000DF91CF911F910F9108950F931F93CF9347
:10262000DF93EC01BDDF8C01CE01E4DF800F911F51
:10263000DF91CF911F910F9108954F925F926F920A
:102640007F92EF92FF920F931F93CF93DF93CDB7BB
:10265000DEB7A1970FB6F894DEBF0FBECDBF7C01E9
:10266000FA01CB0119A2223008F42AE08E010F5D95
:102670001F4F422E512C612C712CBF01A3019201DE
:1026800079D3F901CA01015011096A3014F4605D6F
:1026900001C0695CD8016C93232B242B252B69F78F
:1026A000B801C7017DDFA1960FB6F894DEBF0FBE5B
:1026B000CDBFDF91CF911F910F91FF90EF907F9051
:1026C0006F905F904F9008952115310541F4DC0122
:1026D000ED91FC910190F081E02D642F0994ADCF34
:1026E0009A01462F50E060E070E0EECF70E09B0171
:1026F000382BC9010895FC0180819181F8C3CF93E3
:10270000DF93EC0188819981009709F0F0D3198259
:1027100018821D821C821B821A82DF91CF9108953C
:102720000F931F93CF93DF93EC018B016F5F7F4F6C
:102730008881998174D4009731F0998388831B83B1
:102740000A8381E001C080E0DF91CF911F910F915A
:102750000895CF93DF93EC0188819981892B29F02B
:102760008A819B818617970758F4CE01D9DF882389
:1027700041F08C819D81892B19F4E881F9811082C7
:1027800081E0DF91CF910895EF92FF920F931F9315
:10279000CF93DF93EC017B018A01BA01DADF81116B
:1027A00003C0CE01ACDF06C01D830C83B701888156
:1027B000998101D5CE01DF91CF911F910F91FF90AB
:1027C000EF900895FC01118210821382128215820B
:1027D00014826115710549F0FB0101900020E9F7B1
:1027E0003197AF01461B570BCFCF0895CF93DF939F
:1027F000EC01FB018617970751F06081718161152B
:10280000710521F044815581BFDF01C078DFCE0121
:10281000DF91CF910895FC01118210821382128200
:1028200015821482E3CFEF92FF920F931F93CF9301
:10283000DF93FC01248135816115710511F480E07D
:1028400017C04115510599F07B01EC018A01020F77
:10285000131FB8017EDF882391F3288139818C8191
:102860009D81B701820F931FA6D41D830C8381E045
:10287000DF91CF911F910F91FF90EF900895CF932B
:10288000DF93EC01FB014481558160817181CBDFD5
:10289000811102C0CE0133DFCE01DF91CF910895C7
:1028A000CF93DF93EC016115710559F0FB010190A5
:1028B0000020E9F73197AF01461B570BB4DF8111B8
:1028C00002C0CE011CDFCE01DF91CF9108950F939E
:1028D0001F93CF93DF934115510511F161157105D8
:1028E000F9F0DC011496ED91FC9115972E173F0736
:1028F00018F0FB01108214C0E21BF30BEA012197D0
:10290000EC17FD0708F4EF018B01FC016081718178
:10291000620F731FAE01C80155D4C00FD11F1882BA
:10292000DF91CF911F910F91089508950895C0D020
:10293000FDDF0E949500C5EAD0E10E94C500209706
:10294000E1F303DCFACF3EC21F920F920FB60F9253
:1029500011242F933F938F939F93AF93BF938091B5
:10296000300390913103A0913203B0913303309141
:102970002F0323E0230F2D3720F40196A11DB11D55
:1029800005C026E8230F0296A11DB11D20932F0339
:102990008093300390933103A0933203B0933303B9
:1029A0008091340390913503A0913603B0913703A1
:1029B0000196A11DB11D8093340390933503A0931C
:1029C0003603B0933703BF91AF919F918F913F91A1
:1029D0002F910F900FBE0F901F9018952FB7F8945E
:1029E00060913003709131038091320390913303F1
:1029F0002FBF08953FB7F894809134039091350329
:102A0000A0913603B091370326B5A89B05C02F3F90
:102A100019F00196A11DB11D3FBFBA2FA92F982F04
:102A20008827820F911DA11DB11DBC01CD0142E07F
:102A3000660F771F881F991F4A95D1F708958F92C7
:102A40009F92AF92BF92CF92DF92EF92FF926B0173
:102A50007C01D0DF4B015C01C114D104E104F1041D
:102A6000F1F063DFC7DFDC01CB0188199909AA09FE
:102A7000BB09883E9340A105B10570F321E0C21A5D
:102A8000D108E108F10888EE880E83E0981EA11CA9
:102A9000B11CC114D104E104F10421F7DDCFFF9092
:102AA000EF90DF90CF90BF90AF909F908F90089560
:102AB000789484B5826084BD84B5816084BD85B519
:102AC000826085BD85B5816085BDEEE6F0E08081E0
:102AD00081608083E1E8F0E0108280818260808301
:102AE000808181608083E0E8F0E080818160808384
:102AF000E1EBF0E0808184608083E0EBF0E08081B6
:102B000081608083EAE7F0E0808184608083808157
:102B100082608083808181608083808180688083FF
:102B20001092C1000895833081F028F4813099F02B
:102B30008230A1F008958730A9F08830B9F0843050
:102B4000D1F4809180008F7D03C0809180008F77C9
:102B500080938000089584B58F7702C084B58F7DFF
:102B600084BD08958091B0008F7703C08091B0003C
:102B70008F7D8093B0000895CF93DF9390E0FC01A8
:102B8000E458FF4F2491FC01E057FF4F84918823C4
:102B900061F190E0880F991FFC01E854FF4FC59147
:102BA000D491FC01E255FF4FA591B491611109C088
:102BB0009FB7F8948881209582238883EC912E23F7
:102BC0000BC0623061F49FB7F8943881822F8095F2
:102BD00083238883EC912E2B2C939FBF06C08FB745
:102BE000F894E8812E2B28838FBFDF91CF91089531
:102BF0001F93CF93DF93282F30E0F901E859FF4F5F
:102C00008491F901E458FF4FD491F901E057FF4F47
:102C1000C491CC23C1F0162F811185DFEC2FF0E099
:102C2000EE0FFF1FE255FF4FA591B4918FB7F894B7
:102C3000111105C09C91ED2FE095E92302C0EC91A4
:102C4000ED2BEC938FBFDF91CF911F9108954F92A1
:102C50005F926F927F928F929F92AF92BF92CF922C
:102C6000DF92EF92FF920F931F93CF93DF9369014F
:102C70007A0190E0FC01E458FF4F1491FC01E05709
:102C8000FF4FC491662311F0012F01C000E0B2DEB6
:102C90004B015C01D0E0CC0FDD1FCC55DF4FFE01B6
:102CA000A591B4918C91812380131CC0A3DEDC011B
:102CB000CB0188199909AA09BB09C816D906EA06E1
:102CC000FB0668F760E070E0CB012FC093DEDC010B
:102CD000CB0188199909AA09BB09C816D906EA06C1
:102CE000FB0680F3FE01A591B4918C9181238013A2
:102CF000EDCF80DE2B013C01FE01A591B4918C91BA
:102D0000812380130DC076DEDC01CB01881999097F
:102D1000AA09BB09C816D906EA06FB0668F7D2CF8E
:102D200069DE6419750986099709DF91CF911F91B2
:102D30000F91FF90EF90DF90CF90BF90AF909F905A
:102D40008F907F906F905F904F900895AA1BBB1B50
:102D500051E107C0AA1FBB1FA617B70710F0A61B9B
:102D6000B70B881F991F5A95A9F780959095BC01BC
:102D7000CD010895A1E21A2EAA1BBB1BFD010DC0B7
:102D8000AA1FBB1FEE1FFF1FA217B307E407F5071B
:102D900020F0A21BB30BE40BF50B661F771F881FF7
:102DA000991F1A9469F760957095809590959B018D
:102DB000AC01BD01CF010895EE0FFF1F0590F49106
:102DC000E02D0994CF93DF938230910510F482E0D7
:102DD00090E0E0913A03F0913B0320E030E0C0E066
:102DE000D0E0309711F14081518148175907C0F068
:102DF0004817590761F482819381209719F09B83CA
:102E00008A832BC090933B0380933A0326C02115FD
:102E1000310519F04217530718F49A01BE01DF017A
:102E2000EF010280F381E02DDCCF2115310509F19E
:102E3000281B390B2430310590F412968D919C910A
:102E400013976115710521F0FB019383828304C000
:102E500090933B0380933A03FD01329644C0FD01F9
:102E6000E20FF31F81939193225031092D933C93EC
:102E70003AC02091380330913903232B41F420913B
:102E800002013091030130933903209338032091DC
:102E90000001309101012115310541F42DB73EB7F4
:102EA0004091040150910501241B350BE09138033A
:102EB000F0913903E217F307A0F42E1B3F0B2817FC
:102EC000390778F0AC014E5F5F4F2417350748F0A3
:102ED0004E0F5F1F509339034093380381939193B2
:102EE00002C0E0E0F0E0CF01DF91CF9108950F93B1
:102EF0001F93CF93DF93009709F48CC0FC013297A6
:102F00001382128200913A0310913B0301151105BF
:102F100081F420813181820F931F209138033091F9
:102F200039032817390779F5F0933903E09338030B
:102F300071C0D80140E050E0AE17BF0750F41296C0
:102F40002D913C911397AD012115310509F1D9015E
:102F5000F3CF9D01DA013383228360817181860F73
:102F6000971F8217930769F4EC0128813981260F96
:102F7000371F2E5F3F4F318320838A819B8193834C
:102F80008283452B29F4F0933B03E0933A0342C03C
:102F90001396FC93EE931297ED01499159919E017E
:102FA000240F351FE217F30771F480819181840F9C
:102FB000951F029611969C938E938281938113960E
:102FC0009C938E931297E0E0F0E0D80112968D91D9
:102FD0009C911397009719F0F8018C01F6CF8D9111
:102FE0009C9198012E5F3F4F820F931F20913803D1
:102FF000309139032817390769F4309729F4109272
:103000003B0310923A0302C01382128210933903D9
:1030100000933803DF91CF911F910F910895A0E0A5
:10302000B0E0E4E1F8E178C3EC01009719F4CB01DA
:10303000C9DEB4C0FC01E60FF71F9C012250310924
:10304000E217F30708F4A8C0D9010D911C9111975C
:1030500006171707A8F00530110508F49BC0C80132
:1030600004978617970708F495C002501109061BAC
:10307000170B019311936D937C93CF0138DF8AC0B6
:103080005B01A01AB10A4C01800E911EA0913A0377
:10309000B0913B0340E050E0E12CF12C109709F493
:1030A0004AC0A815B905D1F56D907C9011976301C0
:1030B00082E0C80ED11CCA14DB0480F1A3014A19B6
:1030C0005B096A0182E0C80ED11C1296BC9012976F
:1030D0001396AC91B5E0CB16D10440F0B282A38335
:1030E00051834083D9016D937C930AC00E5F1F4FBB
:1030F000C301800F911FF90191838083EB2DFA2F7B
:10310000E114F10431F0D7011396FC93EE9312977A
:1031100041C0F0933B03E0933A033CC08D919C91F6
:1031200011974817590708F4AC017D0112960D90CC
:10313000BC91A02DB3CF80913803909139038815AD
:103140009905E1F446175707C8F480910001909162
:103150000101009741F48DB79EB740910401509151
:103160000501841B950BE817F907B0F4F0933903B8
:10317000E0933803F901718360830CC0CB0122DE38
:103180007C01009749F0A801BE010CD0CE01AFDE52
:10319000C70104C0CE0102C080E090E0CDB7DEB729
:1031A000EEE0D6C2FB01DC0102C001900D9241505D
:1031B0005040D8F70895FB01DC0101900D920020EA
:1031C000E1F70895FB01DC014150504048F00190C7
:1031D0000D920020C9F701C01D9241505040E0F708
:1031E0000895AEE0B0E0E6EFF8E1A0C20D891E89D7
:1031F00086E08C831A8309838FEF9FE79E838D83FC
:10320000AE01475E5F4F6F89788DCE01019609D080
:103210002F813885F801E20FF31F10822E96E4E02B
:10322000A1C2ACE0B0E0E6E1F9E172C27C016B0161
:103230008A01FC0117821682838181FFB0C1CE0111
:1032400001964C01F7019381F60193FD859193FF5F
:1032500081916F01882309F49EC1853239F493FD71
:10326000859193FF81916F01853221F4B70190E040
:10327000B1D1E8CF512C312C20E02032A0F48B3298
:1032800069F030F4803259F0833269F420612CC047
:103290008D3239F0803339F4216026C022602460F9
:1032A00023C0286021C027FD27C030ED380F3A30F9
:1032B00078F426FF06C0FAE05F9E300D1124532EED
:1032C00013C08AE0389E300D1124332E20620CC0CA
:1032D0008E3221F426FD5FC1206406C08C3611F4C5
:1032E000206802C0883641F4F60193FD859193FF72
:1032F00081916F018111C1CF982F9F7D955493309B
:1033000028F40C5F1F4FFFE3F9830DC0833631F0C3
:10331000833771F0833509F057C021C0F8018081EF
:1033200089830E5F1F4F44244394512C540114C0D1
:103330003801F2E06F0E711CF801A080B18026FF09
:1033400003C0652D70E002C06FEF7FEFC5012C87D1
:1033500036D12C0183012C852F77222E16C03801FF
:10336000F2E06F0E711CF801A080B18026FF03C04F
:10337000652D70E002C06FEF7FEFC5012C8714D17F
:103380002C012C852068222E830123FC19C0832D5B
:1033900090E048165906A0F4B70180E290E01AD1F7
:1033A0003A94F5CFF50127FC859127FE81915F01C5
:1033B000B70190E00FD131103A94F1E04F1A510863
:1033C0004114510479F7DEC0843611F0893631F5A5
:1033D000F80127FF07C060817181828193810C5FB2
:1033E0001F4F08C060817181072E000C880B990B5C
:1033F0000E5F1F4F2F76722E97FF09C09095809514
:10340000709561957F4F8F4F9F4F2068722E2AE0F5
:1034100030E0A40117D1A82EA81843C0853729F49D
:103420002F7EB22E2AE030E025C0F22FF97FBF2E8A
:103430008F36C1F018F4883579F0ADC0803719F0B7
:10344000883721F0A8C02F2F2061B22EB4FE0DC006
:103450008B2D8460B82E09C024FF0AC09F2F966070
:10346000B92E06C028E030E005C020E130E002C0FF
:1034700020E132E0F801B7FE07C0608171818281EE
:1034800093810C5F1F4F06C06081718180E090E0E6
:103490000E5F1F4FA401D6D0A82EA818FB2DFF77D2
:1034A0007F2E76FE0BC0372D3E7FA51450F474FEA0
:1034B0000AC072FC08C0372D3E7E05C0BA2C372DDD
:1034C00003C0BA2C01C0B52C34FF0DC0FE01EA0DBB
:1034D000F11D8081803311F4397E09C032FF06C0AE
:1034E000B394B39404C0832F867809F0B39433FD6A
:1034F00012C030FF06C05A2CB31418F4530C5B18DA
:10350000B32CB31460F4B70180E290E03C8762D042
:10351000B3943C85F6CFB31410F43B1801C0312CA2
:1035200034FF11C0B70180E390E03C8753D03C8565
:1035300032FF16C031FD03C088E790E002C088E585
:1035400090E0B7010CC0832F867851F031FF02C0A4
:103550008BE201C080E237FD8DE2B70190E03AD006
:10356000A51430F4B70180E390E034D05A94F8CF3A
:10357000AA94F401EA0DF11D8081B70190E02AD0F0
:10358000A110F6CF332009F45DCEB70180E290E0C0
:1035900021D03A94F7CFF7018681978102C08FEF4F
:1035A0009FEF2C96E2E1D0C0FC0105906150704085
:1035B0000110D8F7809590958E0F9F1F0895FC01FC
:1035C0006150704001900110D8F7809590958E0F52
:1035D0009F1F08950F931F93CF93DF93FB012381C8
:1035E00021FD03C08FEF9FEF28C022FF16C0468148
:1035F0005781248135814217530744F4A081B1815A
:103600009D012F5F3F4F318320838C93268137812B
:103610002F5F3F4F3783268310C0EB01092F182FF0
:103620000084F185E02D0995892BE1F68E819F813B
:1036300001969F838E83812F902FDF91CF911F91D1
:103640000F910895FA01AA27283051F1203181F114
:10365000E8946F936E7F6E5F7F4F8F4F9F4FAF4F9A
:10366000B1E03ED0B4E03CD0670F781F891F9A1FAD
:10367000A11D680F791F8A1F911DA11D6A0F711D61
:10368000811D911DA11D20D009F468943F912AE06D
:10369000269F11243019305D3193DEF6CF01089555
:1036A000462F4770405D4193B3E00FD0C9F7F6CF86
:1036B000462F4F70405D4A3318F0495D31FD40524E
:1036C000419302D0A9F7EACFB4E0A69597958795E4
:1036D00077956795BA95C9F70097610571050895C3
:1036E0009B01AC010A2E069457954795379527956F
:1036F000BA95C9F7620F731F841F951FA01D089507
:10370000F999FECF92BD81BDF89A992780B50895A9
:103710002F923F924F925F926F927F928F929F92E1
:10372000AF92BF92CF92DF92EF92FF920F931F93CF
:10373000CF93DF93CDB7DEB7CA1BDB0B0FB6F89480
:10374000DEBF0FBECDBF09942A88398848885F84C0
:103750006E847D848C849B84AA84B984C884DF8031
:10376000EE80FD800C811B81AA81B981CE0FD11D15
:103770000FB6F894DEBF0FBECDBFED010895F894EB
:02378000FFCF79
:1037820000003C038000010000001F1C1F1E1F1EC2
:103792001F1F1E1F1E1F01005E00000042444E3B01
:1037A20000424C473B0042444E3A2000424C473ACA
:1037B20020004E657420496E697469616C697A658E
:1037C200642E006672616D655F6572726F7220733E
:1037D20065636F6E6473006672616D655F657272B8
:1037E2006F72206D696E75746573006672616D65C6
:1037F2005F6572726F7220686F75727300667261B4
:103802006D655F6572726F72206461797320706199
:1038120072742031006672616D655F6572726F72DB
:103822002064617973207061727420320066726163
:103832006D655F6572726F722079656172730025C2
:103842003034642D253032642D2530326420253009
:1038520032643A253032643A253032640000000086
:1038620000430E790E3F0E8C0ED30E590EEB0E5AFC
:103872000E6F0E1510760E180FB40E240E2B0E3B83
:103882000E6F0F00000000F410A512771091108344
:1038920010D310000000002A120D0A006E616E00A3
:0838A200696E66006F76660096
:00000001FF
