:100000003CC000005FC000005DC000005BC000009D
:1000100059C0000057C0000055C0000053C0000088
:1000200051C000004FC000004DC000004BC0000098
:1000300049C0000047C0000045C0000043C00000A8
:1000400088C400003FC00000EFC100001FC20000D4
:1000500039C0000037C0000035C0000033C00000C8
:1000600031C000002FC00000A600B000BA00C400DC
:10007000D000DA00E4007402F60211241FBECFEFB4
:10008000D8E0DEBFCDBF11E0A0E0B1E0EAEDFFE0D7
:1000900002C005900D92AA33B107D9F722E0AAE376
:1000A000B1E001C01D92AC31B207E1F710E0CDE341
:1000B000D0E003C02197FE0151D5C433D107D1F759
:1000C0003ED489C79DCF26E040E855E260E070E06D
:1000D0008CE691E046C1CF93DF93CDB7DEB7629750
:1000E0000FB6F894DEBF0FBECDBF6AE071E0CE015F
:1000F0000D96AFD3BE01635F7F4FCE010196D2D381
:100100006EE071E0CE01019601D4BC01CE010796EC
:10011000C9D3CE01019636D3BE01695F7F4F8CE60D
:1001200091E0C7D268EE73E080E090E081D4CE0128
:10013000079628D3CE010D9625D362960FB6F89474
:10014000DEBF0FBECDBFDF91CF9108950F9300E0CA
:1001500020E040E060E08AE391E03CD20F91089516
:100160000F9300E020E040E060E080E491E032D2D4
:100170000F9108950F9300E020E040E060E086E4F6
:1001800091E028D20F9108950F9300E020E040E025
:1001900060E084E591E01ED28CE491E00F9110C202
:1001A0000F9300E020E040E060E08AE591E012D2A9
:1001B0000F9108950F9300E020E040E060E080E6BA
:1001C00091E008D20F9108950F9300E020E040E005
:1001D00060E086E691E0FED10F910895FC01918DDB
:1001E000228D892F90E0805C9F4F821B91098F7335
:1001F00099270895FC01918D828D981731F0828D99
:10020000E80FF11D858D90E008958FEF9FEF089521
:10021000FC01918D828D981761F0828DDF01A80F0E
:10022000B11D5D968C91928D9F5F9F73928F90E030
:1002300008958FEF9FEF08958BE692E0892B41F0B0
:1002400080E090E0892B21F046D181110C940000D0
:100250000895FC01848DDF01A80FB11DA35ABF4F83
:100260002C91848D90E001968F739927848FA689B5
:10027000B7892C93A089B1898C9180648C93938DDC
:10028000848D981306C00288F389E02D80818F7DCC
:1002900080830895CF93DF93EC01888D8823C1F08C
:1002A000EA89FB89808185FD05C0A889B9898C917F
:1002B00086FD0EC00FB607FCF5CF808185FFF2CF1B
:1002C000A889B9898C9185FFEDCFCE01C2DFE8CF37
:1002D000DF91CF910895EF92FF920F931F93CF93E9
:1002E000DF93EC0181E0888F9B8D8C8D981305C086
:1002F000E889F989808185FD23C0F62E0B8D10E0F9
:100300000F5F1F4F0F731127E02E8C8DE8120BC06B
:100310000FB607FCFACFE889F989808185FFF5CF10
:10032000CE0197DFF2CF8B8DFE01E80FF11DE35A6E
:10033000FF4FF0820B8FEA89FB898081806207C0C2
:10034000EE89FF896083E889F989808180648083F0
:1003500081E090E0DF91CF911F910F91FF90EF909E
:100360000895CF92DF92EF92FF921F93CF93DF9386
:10037000EC016A017B01122FE889F98982E0808310
:100380004115514E61057105A9F060E079E08DE3FA
:1003900090E0A7019601C0D3DA01C9010197A10934
:1003A000B109B695A79597958795AC01411580E160
:1003B0005807A0F0E889F989108260E874E88EE1B6
:1003C00090E0A7019601A8D3BA01A90141505109B3
:1003D000610971097695679557954795EC85FD8577
:1003E0005083EE85FF854083188EEC89FD8910834C
:1003F000EA89FB89808180618083EA89FB89808129
:1004000088608083EA89FB89808180688083EA89AB
:10041000FB8980818F7D8083DF91CF911F91FF9039
:10042000EF90DF90CF9008951F920F920FB60F922A
:1004300011242F938F939F93EF93FF93E0917C016F
:10044000F0917D018081E0918201F091830182FD34
:1004500012C09081809185018F5F8F7320918601FA
:10046000821751F0E0918501F0E0E459FE4F958F3D
:100470008093850101C08081FF91EF919F918F91C1
:100480002F910F900FBE0F901F9018951F920F92F3
:100490000FB60F9211242F933F934F935F936F9357
:1004A0007F938F939F93AF93BF93EF93FF938CE6CC
:1004B00091E0CFDEFF91EF91BF91AF919F918F912E
:1004C0007F916F915F914F913F912F910F900FBE50
:1004D0000F901F9018958CE691E080DE21E0892B2B
:1004E00009F420E0822F0895ECE6F1E013821282F5
:1004F00088EE93E0A0E0B0E084839583A683B78381
:1005000086E191E09183808385EC90E095878487F4
:1005100084EC90E09787868780EC90E0918B808BCD
:1005200081EC90E0938B828B82EC90E0958B848BB6
:1005300086EC90E0978B868B118E128E138E148E24
:1005400008958F929F92AF92BF92CF92DF92EF92D7
:10055000FF920F931F93CF93DF937C018B016C016C
:1005600082E0C80ED11C4701E5E08E0E911CC0E070
:10057000D0E0F60161916F014AE050E0C801FCD083
:100580005C016EE2C8018BD08A0D9B1DC80FD91F7C
:10059000C814D90471F74AE050E0F7016581C80139
:1005A000EBD08C0F9D1FDF91CF911F910F91FF908A
:1005B000EF90DF90CF90BF90AF909F908F90089575
:1005C00026E231E0FC0131832083128213821482FF
:1005D000158208950F93FC0186E291E09183808358
:1005E00062834383248305830F910895E9E0F2E059
:1005F00086E291E0918380831282138214821582B5
:100600000895CF92DF92EF92FF920F931F93CF93B3
:10061000DF936C017A018B01C0E0D0E0CE15DF05DD
:1006200089F0D8016D918D01D601ED91FC91019079
:10063000F081E02DC6010995892B11F47E0102C0DD
:100640002196ECCFC701DF91CF911F910F91FF90C1
:10065000EF90DF90CF9008956115710579F0FB015F
:1006600001900020E9F73197AF01461B570BDC01E1
:10067000ED91FC910280F381E02D099480E090E0FF
:100680000895DC01ED91FC91DB0114964D915C9194
:1006900015976D917C910280F381E02D0994DC0126
:1006A000ED91FC910190F081E02D099468E271E0F8
:1006B000D3CF0F931F93CF93DF93EC01E2DF8C0135
:1006C000CE01F4DF800F911FDF91CF911F910F9129
:1006D00008954F925F926F927F92EF92FF920F93E5
:1006E0001F93CF93DF93CDB7DEB7A1970FB6F894E2
:1006F000DEBF0FBECDBF7C01FA01CB0119A22230B3
:1007000008F42AE08E010F5D1F4F422E512C612C00
:10071000712CBF01A3019201FFD1F901CA0101505F
:1007200011096A3014F4605D01C0695CD8016C93F2
:10073000232B242B252B69F7B801C7018DDFA19648
:100740000FB6F894DEBF0FBECDBFDF91CF911F91E2
:100750000F91FF90EF907F906F905F904F90089572
:100760002115310541F4DC01ED91FC910190F081FE
:10077000E02D642F0994ADCF9A01462F50E060E040
:1007800070E0EECFFC018081918183C2CF93DF9333
:10079000EC0188819981009709F07BD21982188237
:1007A0001D821C821B821A82DF91CF9108950F93C4
:1007B0001F93CF93DF93EC018B016F5F7F4F888195
:1007C0009981FFD2009731F0998388831B830A8334
:1007D00081E001C080E0DF91CF911F910F910895DA
:1007E000CF93DF93EC0188819981892B29F08A814D
:1007F0009B818617970758F4CE01D9DF882341F0F3
:100800008C819D81892B19F4E881F981108281E026
:10081000DF91CF910895EF92FF920F931F93CF93A3
:10082000DF93EC017B018A01BA01DADF811103C099
:10083000CE01ACDF06C01D830C83B701888199818E
:100840008CD3CE01DF91CF911F910F91FF90EF904C
:100850000895FC0111821082138212821582148283
:100860006115710549F0FB0101900020E9F731970E
:10087000AF01461B570BCFCF0895CF93DF93EC0109
:10088000FB018617970751F0608171816115710531
:1008900021F044815581BFDF01C078DFCE01DF91B7
:1008A000CF910895FC011182108213821282158269
:1008B0001482E3CFEF92FF920F931F93CF93DF93B6
:1008C000FC01248135816115710511F480E017C0A8
:1008D0004115510599F07B01EC018A01020F131FAC
:1008E000B8017EDF882391F3288139818C819D8135
:1008F000B701820F931F31D31D830C8381E0DF91F9
:10090000CF911F910F91FF90EF900895CF93DF93B8
:10091000EC016115710559F0FB0101900020E9F728
:100920003197AF01461B570BC5DF811102C0CE01C5
:100930002DDFCE01DF91CF91089508950895B1D0B4
:10094000FDDFC1DBCCE1D1E0C6DB2097E9F374DC4D
:10095000FBCF1F920F920FB60F9211242F933F934C
:100960008F939F93AF93BF93809110029091110248
:10097000A0911202B091130230910F0223E0230FD5
:100980002D3720F40196A11DB11D05C026E8230FC7
:100990000296A11DB11D20930F0280931002909327
:1009A0001102A0931202B09313028091140290914D
:1009B0001502A0911602B09117020196A11DB11D5A
:1009C0008093140290931502A0931602B09317021D
:1009D000BF91AF919F918F913F912F910F900FBE3B
:1009E0000F901F9018953FB7F89480911402909142
:1009F0001502A0911602B091170226B5A89B05C05A
:100A00002F3F19F00196A11DB11D3FBFBA2FA92F8D
:100A1000982F8827820F911DA11DB11DBC01CD010A
:100A200042E0660F771F881F991F4A95D1F70895F6
:100A30008F929F92AF92BF92CF92DF92EF92FF92EE
:100A40006B017C01D0DF4B015C01C114D104E104D6
:100A5000F104F1F072DFC7DFDC01CB0188199909DD
:100A6000AA09BB09883E9340A105B10570F321E0B6
:100A7000C21AD108E108F10888EE880E83E0981EBA
:100A8000A11CB11CC114D104E104F10421F7DDCF94
:100A9000FF90EF90DF90CF90BF90AF909F908F909E
:100AA0000895789484B5826084BD84B5816084BDE6
:100AB00085B5826085BD85B5816085BDEEE6F0E0D7
:100AC000808181608083E1E8F0E010828081826033
:100AD0008083808181608083E0E8F0E080818160B4
:100AE0008083E1EBF0E0808184608083E0EBF0E0E4
:100AF000808181608083EAE7F0E080818460808388
:100B00008081826080838081816080838081806831
:100B100080831092C1000895A1E21A2EAA1BBB1B6C
:100B2000FD010DC0AA1FBB1FEE1FFF1FA217B307B9
:100B3000E407F50720F0A21BB30BE40BF50B661FCF
:100B4000771F881F991F1A9469F760957095809593
:100B500090959B01AC01BD01CF010895EE0FFF1FE1
:100B60000590F491E02D0994CF93DF9382309105A5
:100B700010F482E090E0E0911A02F0911B0220E074
:100B800030E0C0E0D0E0309711F14081518148174A
:100B90005907C0F04817590761F482819381209763
:100BA00019F09B838A832BC090931B0280931A02B7
:100BB00026C02115310519F04217530718F49A0180
:100BC000BE01DF01EF010280F381E02DDCCF2115B2
:100BD000310509F1281B390B2430310590F41296A8
:100BE0008D919C9113976115710521F0FB01938301
:100BF000828304C090931B0280931A02FD013296F7
:100C000044C0FD01E20FF31F8193919322503109FB
:100C10002D933C933AC02091180230911902232B56
:100C200041F4209102013091030130931902209385
:100C3000180220910001309101012115310541F484
:100C40002DB73EB74091040150910501241B350B8F
:100C5000E0911802F0911902E217F307A0F42E1B9D
:100C60003F0B2817390778F0AC014E5F5F4F241710
:100C7000350748F04E0F5F1F50931902409318023A
:100C80008193919302C0E0E0F0E0CF01DF91CF913A
:100C900008950F931F93CF93DF93009709F48CC0AF
:100CA000FC0132971382128200911A0210911B02EA
:100CB0000115110581F420813181820F931F20914C
:100CC0001802309119022817390779F5F0931902A3
:100CD000E093180271C0D80140E050E0AE17BF07A2
:100CE00050F412962D913C911397AD0121153105C9
:100CF00009F1D901F3CF9D01DA01338322836081A9
:100D00007181860F971F8217930769F4EC01288180
:100D10003981260F371F2E5F3F4F318320838A8111
:100D20009B8193838283452B29F4F0931B02E093EC
:100D30001A0242C01396FC93EE931297ED0149916B
:100D400059919E01240F351FE217F30771F480813A
:100D50009181840F951F029611969C938E938281A8
:100D6000938113969C938E931297E0E0F0E0D80164
:100D700012968D919C911397009719F0F8018C01B0
:100D8000F6CF8D919C9198012E5F3F4F820F931F5C
:100D900020911802309119022817390769F4309709
:100DA00029F410921B0210921A0202C013821282BE
:100DB0001093190200931802DF91CF911F910F91A8
:100DC0000895A0E0B0E0E6EEF6E0D2C0EC010097B6
:100DD00019F4CB01C9DEB4C0FC01E60FF71F9C017A
:100DE00022503109E217F30708F4A8C0D9010D9188
:100DF0001C91119706171707A8F00530110508F484
:100E00009BC0C80104978617970708F495C0025045
:100E10001109061B170B019311936D937C93CF015E
:100E200038DF8AC05B01A01AB10A4C01800E911E06
:100E3000A0911A02B0911B0240E050E0E12CF12C8D
:100E4000109709F44AC0A815B905D1F56D907C90AA
:100E50001197630182E0C80ED11CCA14DB0480F133
:100E6000A3014A195B096A0182E0C80ED11C1296DF
:100E7000BC9012971396AC91B5E0CB16D10440F01C
:100E8000B282A38351834083D9016D937C930AC0BE
:100E90000E5F1F4FC301800F911FF9019183808363
:100EA000EB2DFA2FE114F10431F0D7011396FC93E6
:100EB000EE93129741C0F0931B02E0931A023CC0DC
:100EC0008D919C9111974817590708F4AC017D0149
:100ED00012960D90BC91A02DB3CF809118029091E5
:100EE000190288159905E1F446175707C8F480914F
:100EF000000190910101009741F48DB79EB7409198
:100F0000040150910501841B950BE817F907B0F413
:100F1000F0931902E0931802F901718360830CC009
:100F2000CB0122DE7C01009749F0A801BE010CD064
:100F3000CE01AFDEC70104C0CE0102C080E090E068
:100F4000CDB7DEB7EEE030C0FB01DC0102C001909E
:100F50000D9241505040D8F70895FB01DC010190FB
:100F60000D920020E1F708952F923F924F925F92E9
:100F70006F927F928F929F92AF92BF92CF92DF92A9
:100F8000EF92FF920F931F93CF93DF93CDB7DEB70E
:100F9000CA1BDB0B0FB6F894DEBF0FBECDBF0994A2
:100FA0002A88398848885F846E847D848C849B84F9
:100FB000AA84B984C884DF80EE80FD800C811B8107
:100FC000AA81B981CE0FD11D0FB6F894DEBF0FBE36
:0A0FD000CDBFED010895F894FFCFA6
:100FDA0000001C02800001000000415344005341FC
:100FEA004400000000006B010103EE000801FA0052
:100FFA004A0100000000A1020D0A006E616E00693C
:0A100A006E66006F7666002E00008F
:00000001FF
