:1000000070C0000096C0000094C0000092C00000C4
:1000100090C000008EC000008CC000008AC00000AC
:1000200088C0000086C0000084C0000082C00000BC
:1000300080C000007EC000007CC000007AC00000CC
:100040000C943F1A76C000000C94FE170C943018E4
:1000500070C000006EC000006CC000006AC00000EC
:1000600068C0000066C0000041726475696E6F3E32
:100070000000000008000201000003040700000067
:10008000000000000001020408102040800102046A
:1000900008102001020408102004040404040404CD
:1000A000040202020202020303030303030000002E
:1000B0000023002600290000000000250028002B56
:1000C0000000000000240027002A0000D3043E06A0
:1000D000D90A10105E1053135F136913BC155E1814
:1000E000FB1811241FBECFEFD8E0DEBFCDBF15E057
:1000F000A0E0B1E0EEE2F2E402C005900D92AE396C
:10010000B107D9F726E0AEE9B5E001C01D92A73FDF
:10011000B207E1F710E0C1E7D0E004C02197FE018B
:100120000E94771CC636D107C9F70E94321A0C9478
:10013000152166CF1092A6050895CF92DF92EF9217
:10014000FF920F931F93CF93DF93CDB7DEB76697E0
:100150000FB6F894DEBF0FBECDBFFB0168E374E0BD
:10016000828193810E94CE1D8E010D5E1F4F68011A
:100170000097B9F00E94AA1D8F3F910509F050F435
:10018000F80181938F0168E374E080E090E00E94C1
:10019000CE1DEECF6CE171E087E496E00E9451192C
:1001A0002DC0BE016F5F7F4F87EB95E00E94340A40
:1001B000BE01615F7F4F87EB95E00E943C0ABE0164
:1001C000655F7F4F87EB95E00E94540ABE01695F2F
:1001D0007F4F87EB95E00E944C0ACE010B967C0185
:1001E0008E01095F1F4F9601AE01415F5F4FBE0157
:1001F0006F5F7F4F87EB95E00E94970A66960FB678
:10020000F894DEBF0FBECDBFDF91CF911F910F914C
:10021000FF90EF90DF90CF900895AF92BF92CF9272
:10022000DF92EF92FF920F931F93CF93DF93CDB79F
:10023000DEB766970FB6F894DEBF0FBECDBF8B0159
:1002400068E374E0F801828193810E94CE1D6E0103
:10025000F3E1CF0ED11C5601009799F00E94AA1D20
:100260008F3F910509F050F4F60181936F0168E327
:1002700074E080E090E00E94CE1DEECF66E371E076
:1002800030C068E374E0F801848195810E94CE1D3E
:100290006E01FFE0CF0ED11C7601009799F00E940D
:1002A000AA1D8F3F910509F050F4F60181936F016B
:1002B00068E374E080E090E00E94CE1DEECF6FE432
:1002C00071E00FC068E374E0F801868197810E94B5
:1002D000CE1D6E01FBE0CF0ED11C860116C064E678
:1002E00071E087E496E00E9451192AC00E94AA1D7D
:1002F0008F3F910509F098F7F60181936F0168E34C
:1003000074E080E090E00E94CE1D009779F7BE0176
:100310006F5F7F4F87EB95E00E94340ABE01695FF3
:100320007F4F87EB95E00E94440A9E01295F3F4F73
:10033000A501BE016F5F7F4F87EB95E00E94970A92
:1003400066960FB6F894DEBF0FBECDBFDF91CF919A
:100350001F910F91FF90EF90DF90CF90BF90AF90E3
:100360000895EF92FF920F931F93CF93DF93CDB732
:10037000DEB7C058D1090FB6F894DEBF0FBECDBFAF
:10038000C757DF4FE880F980C958D0409E012357F6
:100390003F4FC557DF4F48815981CB58D04060E867
:1003A00070E0CE0101960E94301E8E010F5F1F4F3C
:1003B000F80180818823B9F08A3049F4D701ED91A2
:1003C000FC910190F081E02D6DE0C7010995D70106
:1003D000ED91FC910190F081E02DD8016D918D019E
:1003E000C7010995E5CFC058DF4F0FB6F894DEBFBF
:1003F0000FBECDBFDF91CF911F910F91FF90EF9076
:1004000008950F931F93CF93DF936AE771E087E41A
:1004100096E00E9451198FE891E09F938F9388EBAB
:1004200091E09F938F930BED11E01F930F93C7E41F
:10043000D6E0DF93CF9395DF88EE91E09F938F9383
:1004400085E092E09F938F931F930F93DF93CF9359
:1004500088DF86E192E09F938F938AE292E09F93F8
:100460008F931F930F93DF93CF937BDF83E392E010
:100470009F938F9380E592E09F938F931F930F93A9
:10048000DF93CF936EDF8DB79EB780960FB6F8944B
:100490009EBF0FBE8DBF8CE592E09F938F9386E742
:1004A00092E09F938F931F930F93DF93CF9359DF26
:1004B00082E892E09F938F938DE992E09F938F93D0
:1004C0001F930F93DF93CF934CDF82EA92E09F93C9
:1004D0008F9384EB92E09F938F931F930F93DF93FF
:1004E000CF933FDF8DB79EB748960FB6F8949EBF67
:1004F0000FBE8DBFDF91CF911F910F910895CF92C5
:10050000DF92EF92FF920F931F93CF93DF93CDB7BC
:10051000DEB766970FB6F894DEBF0FBECDBFBE0143
:100520006D5E7F4F87EB95E0A7D7BE01615F7F4F80
:1005300087EB95E0B9D7BE01655F7F4F87EB95E00C
:10054000ABD7BE016F5F7F4F87EB95E08DD7BE01C4
:10055000695F7F4F87EB95E097D787E496E00E942D
:100560004E196CEB72E087E496E00E94511966ED3B
:1005700072E087E496E00E9451198E811F928F935A
:100580008D811F928F938C811F928F938B811F92ED
:100590008F938A811F928F9389811F928F9382E517
:1005A000E82E83E0F82EFF92EF928FEE92E09F9379
:1005B0008F938EEF92E09F938F9307E416E01F9343
:1005C0000F93CFDE8E891F928F938D891F928F9309
:1005D0008C891F928F938B891F928F93FF92EF923A
:1005E00080E293E09F938F9390E3C92E93E0D92EFE
:1005F000DF92CF921F930F93B4DE0FB6F894DEBF55
:100600000FBECDBF8A891F928F9389891F928F93C6
:1006100088891F928F938F851F928F93FF92EF92FD
:1006200086E493E09F938F93DF92CF921F930F9373
:1006300098DE8E851F928F938D851F928F938C8568
:100640001F928F938B851F928F93FF92EF9285E578
:1006500093E09F938F93DF92CF921F930F9381DE4E
:100660000FB6F894DEBF0FBECDBF8A851F928F9361
:1006700089851F928F9388851F928F938F811F92F8
:100680008F93FF92EF9288E693E09F938F93DF9290
:10069000CF921F930F9365DEC8010E944E190FB6CB
:1006A000F894DEBF0FBECDBF66960FB6F894DEBFDE
:1006B0000FBECDBFDF91CF911F910F91FF90EF90B3
:1006C000DF90CF9008958F929F92AF92BF92CF927A
:1006D000DF92EF92FF920F931F93CF93DF9300D09F
:1006E00000D000D0CDB7DEB75C014B017B0100E04C
:1006F00010E00A151B050CF0B5C083E0A816B10484
:1007000009F03EC0F701C080D18065E572E0C60106
:100710000E94D11D892BA1F5F60101900020E9F777
:10072000CF0107978C159D0559F568E374E0F40136
:10073000848195810E94CE1D8E010F5F1F4F78012D
:100740000097B9F00E94AA1D8F3F910509F050F45F
:10075000F80181938F0168E374E080E090E00E94EB
:10076000CE1DEECF66E773E087E496E00E94511954
:1007700079C0B7018091A0059091A1056ED272C099
:10078000F701C190D1907F016BE772E0C6010E9432
:10079000D11D892B09F063C0F60101900020E9F713
:1007A000CF0107978C159D0509F059C066E973E0E4
:1007B00087E496E00E94511963EA73E087E496E0CB
:1007C0000E945119BE016F5F7F4F8091A0059091EB
:1007D000A105EDD18E010F5F1F4FE12CF12CF80127
:1007E00061918F014AE050E087E496E00E94101A80
:1007F000F3E0EF16F10431F068E374E087E496E08B
:100800000E9446198FEFE81AF80AE4E0EE16F104A8
:1008100031F787E496E00E944E1964EB73E087E4B9
:1008200096E00E945119BE016B5F7F4F8091A00539
:100830009091A10557D18E818F938D818F9382ECFA
:1008400093E09F938F9387E496E09F938F9389DD46
:100850000F900F900F900F900F900F9003C00F5FAD
:100860001F4F47CF26960FB6F894DEBF0FBECDBF01
:10087000DF91CF911F910F91FF90EF90DF90CF907C
:10088000BF90AF909F908F9008956F927F928F92BC
:100890009F92AF92BF92CF92DF92EF92FF920F930F
:1008A0001F93CF93DF93CDB7DEB7C857D1090FB6EB
:1008B000F894DEBF0FBECDBF8E01055A1F4F8EE1EB
:1008C000F801982F11929A95E9F74E01EDE38E0EFB
:1008D000911CF40111928A95E9F7B8018091A40561
:1008E0009091A5051DD3B4018091A4059091A50513
:1008F00017D38AEC682E83E0782E7F926F921F9335
:100900000F9397ECA92E93E0B92EBF92AF922CECE7
:10091000C22E23E0D22EDF92CF927E01FFE1EF0EB6
:10092000F11CFF92EF920E94101E7F926F929F9295
:100930008F92BF92AF92DF92CF92FF92EF920E947E
:10094000101E43EB55E1B7018091A0059091A105E0
:100950001DD243EB55E1BE016F5F7F4F8091A00533
:100960009091A10513D2B80187E496E00E94511935
:100970000FB6F894DEBF0FBECDBFC858DF4F0FB61D
:10098000F894DEBF0FBECDBFDF91CF911F910F91C5
:10099000FF90EF90DF90CF90BF90AF909F908F909F
:1009A0007F906F9008950F9300E020E040E060E0BA
:1009B00087EA95E00E94D4180F910895CF93DF93B2
:1009C00060E875E280E090E00E94411661E072E02C
:1009D00083ED93E00E94511661E072E08AEB92E0B1
:1009E0000E9451166FE772E08AE292E00E9451166F
:1009F0006DE071E088ED93E00E9451166DE970E0C2
:100A00008EED93E00E94511663E673E085EE93E06D
:100A10000E9451166AE970E08DE992E00E94511639
:100A200085E690E00E943E1AEC0162E070E0FCD1A5
:100A3000D093A505C093A40585E690E00E943E1AD8
:100A4000EC0164E070E0F0D1D093A305C093A2055F
:100A500083E290E00E943E1AEC019CD0D093A10565
:100A6000C093A0056AEE73E087E496E00E945119F6
:100A70006BE174E087E496E00E945119C3E0D0E096
:100A800087E496E00E94D816892B81F081E080935C
:100A9000A60561E874E087E496E00E945119809110
:100AA000A605882391F00E94D016F9CF4AE050E0C5
:100AB000BE0187E496E00E94EF1968EE73E080E0E3
:100AC00090E00E94BA1A2197D9F68091A0059091E2
:100AD000A105DFD06AE374E087E496E0DF91CF916F
:100AE0000C9451190895CF92DF92EF92FF920F93D9
:100AF0001F93CF93DF938B016901EB017A01E61A13
:100B0000F70ACE01801B910B8C159D053CF4C701A3
:100B10008C0F9D1F0E94C8208993F3CFDF91CF9146
:100B20001F910F91FF90EF90DF90CF900895EF927B
:100B3000FF920F93CF93DF93CDB7DEB72A970FB60F
:100B4000F894DEBF0FBECDBF7C0124E030E049E168
:100B500050E0BE01695F7F4FC6DF0A852985488561
:100B60006F81CE0101960E94D4188B819C81AD814A
:100B7000BE81F701858F968FA78FB0A32A960FB6F7
:100B8000F894DEBF0FBECDBFDF91CF910F91FF90E4
:100B9000EF900895CF93DF93EC010E944B15CE01A7
:100BA0004B960E94CA18CE01DF91CF91C0CFCF9251
:100BB000DF92EF92FF920F93CF93DF9300D000D09C
:100BC00000D0CDB7DEB76C017B0124E030E049E115
:100BD00050E089DFF7010381228141816081CE01EC
:100BE00001960E94D4188B819C81AD81BE81F60153
:100BF000858F968FA78FB0A326960FB6F894DEBF89
:100C00000FBECDBFDF91CF910F91FF90EF90DF909E
:100C1000CF900895CF92DF92EF92FF920F931F93A0
:100C2000CF93DF936A0179018B01C0E0D0E0CE154C
:100C3000DF0554F4F80161918F01CE018C0D9D1DEB
:100C40000E94D0202196F3CFDF91CF911F910F9179
:100C5000FF90EF90DF90CF900895CF93DF93EB015B
:100C600024E030E049E150E0D5DF4AE050E069811E
:100C700087E496E0DF91CF910C94161A0F9300E071
:100C800020E040E060E08DEA95E00E94D4180F91EA
:100C90000895CF92DF92EF92FF920F931F93CF931D
:100CA000DF93CDB7DEB7AE970FB6F894DEBF0FBEB9
:100CB000CDBF6C01BE01655D7F4F87EB95E0DCD356
:100CC000BE01695D7F4F87EB95E0EED3BE016D5DA0
:100CD0007F4F87EB95E0E0D3BE01675E7F4F87EBE8
:100CE00095E0C2D3BE01615E7F4F87EB95E0CCD328
:100CF000BE01695D7F4FCE0101960E94E018BE01E2
:100D00006D5D7F4FCE0107960E94E018BE01615EC7
:100D10007F4FCE010D960E94E018BE01655D7F4FAA
:100D2000CE0143960E94E018CE0101967C018E010F
:100D3000095F1F4F9E01235F3F4FAE014D5E5F4F26
:100D4000BE01675E7F4F8DED95E00E94FD1283EB43
:100D500095E1F60192A381A363EB75E1C6010E94C0
:100D60003A1466EA74E087E496E00E945119AE9660
:100D70000FB6F894DEBF0FBECDBFDF91CF911F91AC
:100D80000F91FF90EF90DF90CF900895EF92FF9238
:100D90000F931F93CF93DF9300D000D000D0CDB737
:100DA000DEB78C017B0180E995E09A838983F801A5
:100DB000858D968DA78DB0A18B839C83AD83BE83DB
:100DC000BE016F5F7F4FC8010E94BE13E114F104A2
:100DD00061F0F70101900020E9F73197AF014E195A
:100DE0005F09B701C8010E94C813C8010E94C5135A
:100DF00026960FB6F894DEBF0FBECDBFDF91CF9120
:100E00001F910F91FF90EF900895FC01EF5AFF4F53
:100E1000108231961082319610823596118210829E
:100E20003297118210820895EF92FF921F93CF9311
:100E3000DF931F92CDB7DEB77C01162F60E0812FC4
:100E400079830E94571BF701E15BFF4F1083798183
:100E50007183709688EC90E091838083329680E96C
:100E600090ED9183808335971182108232971182A1
:100E70001082C7010F90DF91CF911F91FF90EF90EB
:100E8000C4CFCF93DF93EC01FC01EF59FF4F2081DA
:100E9000318140E050E0729761E080810E94C21B86
:100EA0009B01FE01ED59FF4F71836083672B91F029
:100EB000C15ADF4F88819981AC014053584F421786
:100EC000530758F488579C4E8217930748F482E0E2
:100ED00090E008C08FEF9FEF05C080E090E002C077
:100EE00081E090E0DF91CF9108950F931F93CF930E
:100EF000DF938C01CFEFDFEFC801C3DF229719F436
:100F00008230910539F0EC01CF3F8FEFD807A1F780
:100F100080E001C081E0DF91CF911F910F91089592
:100F20002F923F924F925F926F927F928F929F92F9
:100F3000AF92BF92CF92DF92EF92FF920F931F93E7
:100F4000CF93DF93CDB7DEB7A4970FB6F894DEBF8B
:100F50000FBECDBF8C01F62EE72E8CE0EAE0F1E06B
:100F6000DE01599601900D928A95E1F7C8014DDF97
:100F7000C801BBDF6801580128E0A20EB11CC801FE
:100F800080DFD6018D936D01AA15BB05C1F758010D
:100F9000B1E5AB0EB11CF8018681880F982F990F2F
:100FA000990F890F9781F4E19F9F800D1124D8013B
:100FB00011969C911197890F15969C911597292F41
:100FC000220F220F920F890F13969C911397990F5E
:100FD00012962C911297920F990F890F880F9C915E
:100FE000890FF5018083C8014CDF029721F024E1CD
:100FF000EAEDF4E008C16801F9E0CF0ED11C480128
:1010000022E1820E911CC8013CDFD6018D936D0157
:10101000A815B905C1F7C80134DF029721F024E112
:10102000EEEEF4E0F0C06801B2E5CB0ED11CF801A1
:101030008785880F982F990F990F890F9089F4E170
:101040009F9F800D1124D8011A969C911A97890FA1
:101050001E969C911E97292F220F220F920F890F07
:101060001C969C911C97990F1B962C911B97920F85
:10107000990F890F880F19969C91890FF60180832B
:101080004801F3E18F0E911C38012CE1620E711CB6
:10109000C801F7DED4018D934D01A615B705C1F740
:1010A0001801B3E52B0E311CF801918D808D282F8E
:1010B000220F220F820FFAE09F9F800D1124D8018A
:1010C00054969C915497890F56969C915697990FD8
:1010D00055962C915597920F990F890F880F53961B
:1010E0009C91890FF1018083C801CBDE029721F02A
:1010F00022E1E2E0F5E087C03801FDE16F0E711CEE
:10110000480126E2820E911CC801BBDED3018D93FB
:101110003D01A815B905C1F7C801B3DE029721F05A
:1011200028E1E4E1F5E06FC03801B7E26B0E711C15
:101130004801E0E38E0E911CC801A3DED3018D931C
:101140003D01A815B905C1F7C8019BDE029721F042
:1011500028E1ECE2F5E057C0F801668DA78DB0A15B
:1011600072A073A154A145A137A120A54801F8E5BB
:101170008F0E911CF801858D90E0860F911D860FD2
:10118000911DF4E0AF9F800D911D112468E0B69F82
:10119000800D911D1124AAE07A9E800D911D1124CD
:1011A000B4E17B9F800D911D1124E8E25E9F800DCC
:1011B000911D1124F0E54F9F800D911D112444E6EF
:1011C000349F800D911D112458EC259F800D911D99
:1011D0001124D4018D939C932801B1E34B0E511C33
:1011E0003801EAE36E0E711CC8014BDED2018D930B
:1011F0002D01A615B705C1F7C80143DE0297D9F046
:1012000022E1E4E4F5E0CE010196DC0101900D92CB
:101210002A95E1F79F938F9387EB94E09F938F93A9
:10122000EF92FF920E94101E0F900F900F900F9060
:101230000F900F90A6C0F80142A9E3A9D801D49657
:101240007C91D497D6966C91D697D7965C91D79788
:10125000D8969C91D897D9968C91D997D1962C9164
:1012600030E02053384F240F311D240F311DB4E0DE
:10127000EB9F200D311D1124E8E07E9F200D311DD4
:101280001124FAE06F9F200D311D112444E1549F79
:10129000200D311D112458E2959F200D311D112480
:1012A00060E5869F200D311D1124F801EA5AFF4F99
:1012B0003183208334968081918128173907C9F0C2
:1012C00031832083C90183709927892B91F4C90147
:1012D00064E670E00E94411C892B11F08DE108C08A
:1012E000C90160E971E00E94411C892BB9F38CE1CE
:1012F0008A8FD4018D919C91F801E45AFF4F40816F
:10130000518184179507C1F091838083BE01675E88
:101310007F4FFB01DF01A61BB70B419150E048173F
:10132000590718F4841B950BF5CFF801EC5AFF4FC1
:10133000AF5FA08331968083F50180811F928F93E8
:10134000D6018C911F928F93F10180811F928F9310
:10135000F801EB5AFF4F80811F928F933197808164
:101360001F928F933F932F938CEB94E09F938F93D7
:10137000EF92FF920E94101E0FB6F894DEBF0FBED0
:10138000CDBFA4960FB6F894DEBF0FBECDBFDF91E0
:10139000CF911F910F91FF90EF90DF90CF90BF9072
:1013A000AF909F908F907F906F905F904F903F9005
:1013B0002F900895CF93CFB7F8948091B6058111FF
:1013C00027C0E3EAF0E08491EFE8F0E09491E82FA1
:1013D000F0E0EE0FFF1FEF53FF4FA591B491EC919A
:1013E000E92321F461E08AE00E94931B61E08AE036
:1013F0000E94571B8CB580618CBD8CB580648CBD00
:1014000061E08DE00E94571B61E08BE00E94571B5A
:101410008091B6058F5F8093B605CFBFCF910895B9
:10142000CF92DF92EF92FF920F931F93CF93DF93B0
:101430008B016901EB017A01E61AF70ACE01801BE4
:10144000910B8C159D053CF4C7018C0F9D1F0E94CC
:10145000C8208993F3CFDF91CF911F910F91FF9017
:10146000EF90DF90CF900895FC01408151814F5F54
:101470005F4F26E030E0D4CFFC0140815181485FCE
:101480005F4F24E030E0CCCFFC0140815181445FCC
:101490005F4F24E030E0C4CFFC0140815181405FC8
:1014A0005F4F24E030E0BCCFFC01408151814C5EB5
:1014B0005F4F24E030E0B4CFCF92DF92EF92FF9203
:1014C0000F931F93CF93DF936A0179018B01C0E0E3
:1014D000D0E0CE15DF0554F4F80161918F01CE0103
:1014E0008C0D9D1D0E94D0202196F3CFDF91CF91CE
:1014F0001F910F91FF90EF90DF90CF9008950F9381
:101500001F93CF93DF93EC018B0162E28881998175
:101510000E94D020488159814F5F5F4F26E030E024
:10152000B801CE01DF91CF911F910F91C5CFAF923E
:10153000BF92CF92DF92EF92FF920F931F93CF93C0
:10154000DF93EC015A016901DADF8881998160E05B
:1015500007960E94D02048815981485F5F4F24E060
:1015600030E0B501CE01A8DF48815981445F5F4F6B
:1015700024E030E0B601CE019FDF48815981405F11
:101580005F4F24E030E0B801CE0196DF48815981F9
:101590004C5E5F4F24E030E0B701CE01DF91CF9188
:1015A0001F910F91FF90EF90DF90CF90BF90AF9081
:1015B00083CF0F9300E020E040E060E089EB95E00E
:1015C0000E94D4181092B8051092B7050F91089593
:1015D0000F93FC0130E080E092E1AAE7B0E0481709
:1015E00059076A077B0740F4B695A79597958795A5
:1015F0003F5F3630A1F737E091E09327222311F0C7
:1016000020E501C020E7892F86950C70082B022B5E
:101610000083917091830F9108952091B505222345
:1016200099F04FB7F8942091B505213059F42DB3B6
:101630002093B3053DB32091B405209523232DBB02
:101640004FBF02C04093B3058CBD9DBD08958091EE
:10165000B505882361F09FB7F8942091B505809176
:10166000B305213019F48DBB9FBF08958FBF089536
:1016700090E0982F882744E050E0845F9B4FFCC2A5
:1016800090E00496982F8827860F971F1EC362E06C
:1016900070E0F6CF9B0190E00496982F8827642F86
:1016A000820F931F5AC2CF93DF93C82FD62F472F95
:1016B00064E070E0EFDF4D2F65E070E08C2FDF918C
:1016C000CF91E8CF462F62E070E0E4CFCF93DF9375
:1016D000C82FD62F472F60E170E0DCDF4D2F61E18E
:1016E00070E08C2FDF91CF91D5CF0F931F93CF93C5
:1016F000DF9300D01F92CDB7DEB7182F00E021E0B6
:1017000040E059E06DE370E0CE01019661DF898130
:101710009A8183DF63E070E0812FB2DF8B8397DFF4
:101720008B810F900F900F90DF91CF911F910F91B0
:1017300008950F931F93CF93DF9300D0CDB7DEB7FB
:10174000182F00E021E040E059E06DE370E0CE01A9
:1017500001963EDF89819A8160DF40E150E0612F90
:1017600081EC95E04FD46FEF812FACDF70DF0F90ED
:101770000F90DF91CF911F910F910895CF92DF923B
:10178000EF92FF920F931F93CF93DF9300D0CDB7CB
:10179000DEB79FEF960F953088F5F22E6A01E62EA0
:1017A000182FC7DF00E021E040E059E06DE370E072
:1017B000CE0101960DDF89819A812FDF4E2D4F29B1
:1017C00060E070E0812F66DFC114D10411F0B60132
:1017D0000AC06091BF057091C0056F5F7F4F709325
:1017E000C0056093BF05812F5EDF41E050E0612FAF
:1017F00081EC95E007D42BDF81E001C080E00F9001
:101800000F90DF91CF911F910F91FF90EF90DF909C
:10181000CF900895AF92BF92CF92DF92EF92FF9256
:101820000F931F93CF93DF9300D0CDB7DEB7182F60
:101830005B016A0100E021E040E059E06DE370E007
:10184000CE010196C5DE89819A81E7DE612F81ECA8
:1018500095E09BD27C01009799F463E070E0812FC2
:101860000FDF843109F18823F9F021E030E08C3179
:1018700011F420E030E0EE24FF24E21AF30A14C051
:10188000C816D9060CF476011E141F046CF400E08F
:101890009701A501612F81EC95E069D340E450E008
:1018A000612F81EC95E0AED3D2DEC7010F900F908F
:1018B000DF91CF911F910F91FF90EF90DF90CF902C
:1018C000BF90AF9008950F931F93CF93DF9300D0F5
:1018D00000D0CDB7DEB7182F00E021E040E059E09E
:1018E0006DE370E0CE01019673DE89819A8195DE09
:1018F000612F81EC95E049D28B839C83A8DE8B819C
:101900009C810F900F900F900F90DF91CF911F91BE
:101910000F910895EF92FF920F931F93CF93DF9350
:1019200000D0CDB7DEB7182F7B0100E021E040E00A
:1019300059E06DE370E0CE0101964ADE89819A811B
:101940006CDE01E021E030E0A701612F81EC95E041
:101950000ED37DDE81E090E00F900F90DF91CF916C
:101960001F910F91FF90EF9008958F929F92AF92E9
:10197000BF92DF92EF92FF920F931F93CF93DF936B
:1019800000D0CDB7DEB7D82E5B014A01790100E067
:1019900021E040E059E06DE370E0CE01019618DEF1
:1019A00089819A813ADE6D2D81EC95E0BED18E154C
:1019B0009F0528F46D2D81EC95E0B7D17C0187015E
:1019C0009401A5016D2D81EC95E0F9D140DEC701B0
:1019D0000F900F90DF91CF911F910F91FF90EF909B
:1019E000DF90BF90AF909F908F900895CF92DF923D
:1019F000EF92FF920F931F93CF93DF9300D0CDB759
:101A0000DEB7FB019081911109C09181911106C04F
:101A10009281911103C093819923E1F04115510501
:101A2000C9F06A017F01182F00E021E040E059E091
:101A30006DE370E0CE010196CBDD89819A81EDDD09
:101A4000B701812F15DEB601812F40DE00DE81E077
:101A500090E002C080E090E00F900F90DF91CF9176
:101A60001F910F91FF90EF90DF90CF9008950F930B
:101A70001F93CF93DF9300D0CDB7DEB7182F00E0D0
:101A800021E040E059E06DE370E0CE010196A0DD79
:101A900089819A81C2DD40E250E0612F81EC95E0BE
:101AA000B1D2812FF4DD84FD1BC0812FF0DD83FFD7
:101AB00007C068E1812F06DECADD80E090E016C035
:101AC000C6DD0E94301A00E021E040E059E06DE3FD
:101AD00070E0CE0101967CDD89819A819EDDE1CFA7
:101AE00060E1812FEFDDB3DD81E090E00F900F909A
:101AF000DF91CF911F910F9108958EBD00000DB41D
:101B000007FEFDCF8EB50895EFE8F0E08491E3EA9B
:101B1000F0E0E491F0E0EE0FFF1FE954FF4FA591D4
:101B2000B491EC912E2F30E0E82FF0E0E095F095A5
:101B3000E223F323EC930895EFE8F0E08491E3EAE5
:101B4000F0E0E491F0E0EE0FFF1FE954FF4FA591A4
:101B5000B491EC91E82BEC9308951F93CF93DF930E
:101B600000D0CDB7DEB7182F6A839983CDDF80EF21
:101B7000C4DF9981892FC1DF812FBFDF6A81862F62
:101B8000BCDFDADF81E00F900F90DF91CF911F91E2
:101B90000895CF93DF93EC016CE271E080E090E078
:101BA0000E94BA1A07DCEFE8F0E08491E3EAF0E083
:101BB000E491F0E0EE0FFF1FEF53FF4FA591B491BA
:101BC000EC91E82BEC938091B505882399F02FB721
:101BD000F8948091B505813059F48DB38093B305A5
:101BE0009DB38091B405809589238DBB2FBF02C022
:101BF0002093B30580E58CBD1DBC60E880E090E0DB
:101C0000ACDF65E58BE190E0A8DF65E58AE190E077
:101C1000A4DF8091B505882351F09FB7F8942091F7
:101C2000B5058091B305213029F58DBB9FBF80E0BC
:101C300090E49983888380E090E69987888780E0A4
:101C400098E49B838A8380E098E69B878A8780E07C
:101C500090E59D838C8380E090E79D878C8780E072
:101C600098E59F838E8380E098E79F878E87DF913A
:101C7000CF9108958FBFDBCFCF92DF92EF92FF928B
:101C80000F931F93CF93DF93EC017A018B016C01CB
:101C9000C40ED51ECC15DD0571F036DF80EF2DDFCB
:101CA0008D2F2BDF8C2F29DF2196F80181918F0159
:101CB00024DF42DFEFCFC701DF91CF911F910F915A
:101CC000FF90EF90DF90CF9008951F93CF93DF9315
:101CD0001F92CDB7DEB7182F998316DF8FE00DDF87
:101CE0009981892F0ADF812F08DF80E006DF898351
:101CF00023DF89810F90DF91CF911F9108951F936A
:101D0000CF93DF93182F60E270E0BADCC82FD0E0E9
:101D100061E270E0812FB4DCDC2FCC279E01282B00
:101D2000C901DF91CF911F910895FF920F931F93E7
:101D3000CF93DF93F62EC0E0D0E08F2DE0DF8C0153
:101D4000892B19F08F2DDBDFEC01C017D107A9F724
:101D5000CE01DF91CF911F910F91FF9008951F93B6
:101D6000CF93DF93182F66E270E08ADCC82FD0E0B3
:101D700067E270E0812F84DCDC2FCC279E01282BCA
:101D8000C901DF91CF911F910895FF920F931F9387
:101D9000CF93DF93F62EC0E0D0E08F2DE0DF8C01F3
:101DA000892B19F08F2DDBDFEC01C017D107A9F7C4
:101DB000CE01DF91CF911F910F91FF9008956F9207
:101DC0007F928F929F92AF92BF92CF92DF92EF92CB
:101DD000FF920F931F93CF93DF931F92CDB7DEB780
:101DE000882E962E6A01590164E270E0892D99834C
:101DF00047DCE82EF12C65E270E0892D41DCFE2CF9
:101E0000EE24E82A37016C0C7D1CA3015770E82CE6
:101E10009981F92EE90CF11CE90CF11CF701808184
:101E20009181840F951F9A01200F311F2130384076
:101E300090F060E078E06B01C41AD50AA601B50104
:101E40001BDFA8014C195D09B5016C0D7D1DF70163
:101E50008081918102C0A801B5010EDF060D171D1A
:101E6000412F64E270E0892D15DC402F65E270E0BF
:101E7000892D0F90DF91CF911F910F91FF90EF90DF
:101E8000DF90CF90BF90AF909F908F907F906F909A
:101E900001CCCF92DF92EF92FF920F931F93CF93DB
:101EA000DF93EC017A018B016C01C40ED51ECC15B9
:101EB000DD0579F029DE8FE020DE8D2F1EDE8C2FF0
:101EC0001CDE219680E019DEF80181938F0134DE5B
:101ED000EECFC701DF91CF911F910F91FF90EF904F
:101EE000DF90CF900895AF92BF92CF92DF92EF92A2
:101EF000FF920F931F93CF93DF9300D0CDB7DEB740
:101F00005A834983590129813A8137706C01C60E81
:101F1000D11CC60ED11CF60180859185820F931FBE
:101F2000A801420F531F4130584090F0E0E0F8E024
:101F30007F01E21AF30AA701B501ABDFA8014E1930
:101F40005F09B5016E0D7F1DF6018085918502C088
:101F5000A801B5010F900F90DF91CF911F910F91C4
:101F6000FF90EF90DF90CF90BF90AF9092CF8F9285
:101F70009F92AF92BF92CF92DF92EF92FF920F9318
:101F80001F93CF93DF936C01962E5A017901802E17
:101F900068E270E0892D74DBC82FD0E069E270E060
:101FA000892D6EDBDC2FCC27C82B87019501AE0174
:101FB000692DC60198DF811018C0CE0DDF1D4D2F91
:101FC00068E270E0892D66DB4C2F69E270E0892DB4
:101FD000DF91CF911F910F91FF90EF90DF90CF9005
:101FE000BF90AF909F908F9055CBDF91CF911F9175
:101FF0000F91FF90EF90DF90CF90BF90AF909F90A8
:102000008F900895CF93C62F61E070E08C2F42DB54
:1020100061E070E08C2F34DB8111FACFCF9108950D
:102020000F9300E020E040E060E081ED95E00E9449
:10203000D4180F910895FB01428153816481758109
:10204000FC0142835383648375831782168208954B
:10205000CF93DF93FB0120E080E090E0AAE0319194
:10206000332301F160ED630F6A3080F4A89FB00163
:10207000A99F700D1124CB01C097830F911D37FDCF
:102080009A958F3F910559F350F313C03E3289F46E
:10209000233079F0EA01C20FD11D8A832F5F80E0DF
:1020A00090E0DDCF233029F4FA01858381E090E0D0
:1020B00002C080E090E0DF91CF9108950F9300E09F
:1020C00020E040E060E087ED95E00E94D4180F9199
:1020D00008958F929F92AF92BF92CF92DF92EF922C
:1020E000FF920F931F93CF93DF9300D000D01F92E6
:1020F000CDB7DEB78C016B010E94891AF801778396
:1021000066837627672776277A836983085F1F4F60
:1021100042E050E0BE016F5F7F4FC80139D381E0DC
:1021200090E09C838B8342E050E0BE016D5F7F4F67
:10213000C8012ED380E091E09C838B8342E050E085
:10214000BE016D5F7F4FC80123D31C821B8242E01A
:1021500050E0BE016D5F7F4FC8011AD342E050E0EE
:10216000BE016D5F7F4FC80113D342E050E0BE0156
:102170006D5F7F4FC8010CD35601F5018081882324
:1021800019F1C6017C01FC0120810196211114C0C6
:10219000570147018C189D081814190484F48D8286
:1021A00041E050E0BE016B5F7F4FC801F1D2A40156
:1021B000B601C801EDD203C02E3221F7E9CF670185
:1021C000FFEFCF1ADF0AD9CF1D8241E050E0BE01F8
:1021D0006B5F7F4FC801DCD2E12CFF24F394FC82BB
:1021E000EB8242E050E0BE016D5F7F4FC801D0D26C
:1021F000FC82EB8242E050E0BE016D5F7F4FC80180
:10220000C7D281E090E00F900F900F900F900F9049
:10221000DF91CF911F910F91FF90EF90DF90CF90C2
:10222000BF90AF909F908F9008954F925F926F9262
:102230007F928F929F92AF92BF92CF92DF92EF9256
:10224000FF920F931F93CF93DF93CDB7DEB76597C0
:102250000FB6F894DEBF0FBECDBF7C015B016A01F3
:102260000E94891A2B013C018701085F1F4F45011D
:10227000A12CB12CC8012BD318161906A4F00E946A
:10228000891ADC01CB0184199509A609B7098816BA
:102290009906AA06BB06D0F062E370E080E090E009
:1022A0000E94BA1AE7CFF701428153816481758198
:1022B000808D918DA28DB38D481759076A077B07D2
:1022C00041F4848D958DC59721F406C02FEF3FEF23
:1022D000E4C02EEF3FEFE1C0C80120D20C97E4F03C
:1022E0004CE050E0BE016F5F7F4FC8018CD26C8123
:1022F0008B810E942B1A9A8B898BF701E680F780DD
:102300006A8189810E942B1AE816F90641F48989AD
:102310009A8997FF04C008C02DEF3FEFBEC0C801E7
:1023200017D22CEF3FEFB9C08F709270892B29F034
:10233000C8010ED22BEF3FEFB0C068858F810E949D
:102340002B1A5C01892B29F4C80102D22AEF3FEF36
:10235000A4C0E12CF12C6E818D810E942B1AE8160D
:10236000F90610F541E050E0BE01635F7F4FC80100
:102370004AD28D8581110FC08D858111F3CFC8019F
:102380001AD2C80118D2C80116D2C80114D2FFEF60
:10239000EF1AFF0AE0CF8D859FEF980F9D87882366
:1023A00059F3C80108D2F7CFE12CF12C41E050E0FD
:1023B000BE016D5E7F4FC80126D28B89982F907C1D
:1023C00059F4882361F08B899FEF980F9B8B8823AA
:1023D00031F0C801F0D1F7CFC801EDD11B8A8B894C
:1023E0008111E4CF42E050E0BE01615F7F4FC80140
:1023F0000AD242E050E0BE01635F7F4FC80103D2C2
:10240000C801D9D1C801D7D1C801D5D1C801D3D10C
:1024100042E050E0BE016F5E7F4FC801F4D18F856E
:10242000988981159140F1F42D853E853227232727
:10243000322721303105B1F489899A898115944078
:1024400029F0C80185D127EF3FEF27C0B6016E5FA5
:102450007F4F44E050E0C8012C8B3D8BD4D12C89B8
:102460003D891BC0812C912C89899A8998278927BD
:1024700098278816990630F4C8019DD18FEF881AE5
:10248000980AF2CFEFEFEE1AFE0AEA14FB0409F005
:102490008DCFC8015DD126EF3FEFC90165960FB61C
:1024A000F894DEBF0FBECDBFDF91CF911F910F918A
:1024B000FF90EF90DF90CF90BF90AF909F908F9064
:1024C0007F906F905F904F9008958F929F92AF9200
:1024D000BF92CF92DF92EF92FF920F931F93CF9311
:1024E000DF9300D000D000D0CDB7DEB77C014B0128
:1024F0005A01AEDD8C01892B09F054C0F7014281ED
:102500005381648175818091D9059091DA05A091FC
:10251000DB05B091DC05481759076A077B0709F40A
:1025200044C0F7D76701F8E0CF0ED11C6F70772752
:102530007C5FC6019FD1813009F039C080E995E008
:102540009A838983F70182819381A481B5818B83EA
:102550009C83AD83BE8345E350E0BE016F5F7F4F38
:10256000C6010CD1892B19F400E010E018C0B401A9
:10257000C701AFDD892BC1F3C60107D1892BA1F3B8
:1025800083E0882E912CA50168E873E1C7014DDE38
:102590008C01F1E08F1A910811F00196A1F3C601A8
:1025A000D8D005C001E010E002C00EEF1FEFC80157
:1025B00026960FB6F894DEBF0FBECDBFDF91CF9148
:1025C0001F910F91FF90EF90DF90CF90BF90AF9051
:1025D0009F908F90089544E050E0BC0181E090E02E
:1025E0004BCB44E050E0BC0185E090E045CB44E0BB
:1025F00050E0BC018FE090E03FCB8F929F92AF9272
:10260000BF92CF92DF92EF92FF920F931F93CF93DF
:10261000DF9300D0CDB7DEB74C015A01690181ECE0
:1026200095E069837A83B5DA80E590E00E940D0B2E
:1026300046E050E069817A8189E090E01DDBC501C8
:102640000296D5DFC8010296C6DFC7010296C9DF30
:102650000E94270BF60182819381A481B581F40148
:1026600082839383A483B5830F900F90DF91CF91E2
:102670001F910F91FF90EF90DF90CF90BF90AF90A0
:102680009F908F90089520E935E0FC0131832083ED
:10269000FB014281538164817581FC014283538334
:1026A0006483758308950F9300E020E040E060E0CC
:1026B0008DEE95E079D58DED95E00F916BC50F937B
:1026C00000E020E040E060E083EF95E06DD50F9101
:1026D00008950F9300E020E040E060E089EF95E08E
:1026E00063D50F910895DC01ED91FC91008CF18D83
:1026F000E02D099420E935E0FC0131832083FB01C2
:102700004089518962897389FC01428353836483C0
:1027100075830895FC01848995890895FC01818D54
:10272000928D0895CF93DF931F92CDB7DEB7698363
:10273000DC01ED91FC910280F381E02D41E050E05D
:10274000BE016F5F7F4F09950F90DF91CF91089584
:102750000895CF93DF93EC01888D843061F00E945F
:10276000990BE88DF0E0EE0FFF1FEB51FA4F11824D
:10277000108284E0888FDF91CF910895FC01178A41
:10278000168A6E5F7F4F808D31C9FC01808D6FC9C5
:10279000CF93DF93EC019A018E899F89AB01BC0135
:1027A000888DE3D82E893F89280F391F3F8B2E8BC8
:1027B000DF91CF9108950F931F93CF93DF931F92D3
:1027C000CDB7DEB7FC01218D328D232B59F08C0162
:1027D00041E050E0BE016F5F7F4F808D1BD818161F
:1027E00019061CF08FEF9FEF08C0F801818D928DC4
:1027F0000197928F818F898190E00F90DF91CF9127
:102800001F910F910895CF93DF93FC01218D328D9D
:102810002115310519F48FEF9FEF11C0EC0142171C
:10282000530708F0A901888D0E940A0C1816190692
:1028300094F7298D3A8D281B390B3A8F298FDF9118
:10284000CF910895CF93DF931F92CDB7DEB7FC01F0
:10285000218D328D232B41F0BE016F5F7F4F808D24
:1028600059D8898190E002C08FEF9FEF0F90DF91E0
:10287000CF910895EF92FF921F93CF93DF93FC01C6
:10288000208D243011F080E01CC07B01EC0110E0B1
:10289000812F0E94750B811102C0188F05C08831ED
:1028A000E1F31F5F1430A1F7888D843061F3FD865A
:1028B000EC861A8E198E20E0A70162E00E94BE0B02
:1028C00081E0DF91CF911F91FF90EF9008950F93DA
:1028D0001F93CF93DF93CDB7DEB728970FB6F89449
:1028E000DEBF0FBECDBF8C01F801818D928D892B8B
:1028F00049F0D801ED91FC910680F781E02DC801E7
:102900000995F2CF808D0E94630C181619064CF5BC
:1029100048E050E0BE016F5F7F4FD80158968C9120
:102920000E940A0C9C0118161906CCF4BE016F5FB8
:102930007F4FC8010E9654D48D8190E0982F882740
:102940002E81820F911DF801958B848B2F8130E0B1
:10295000322F22278885280F311D328F218FC90100
:1029600002C080E090E028960FB6F894DEBF0FBE5C
:10297000CDBFDF91CF911F910F9108958F929F92BC
:10298000AF92BF92CF92DF92EF92FF920F931F937D
:10299000CF93DF9300D000D000D0CDB7DEB7FC01DD
:1029A000208D243009F063C06A017B018C0153E063
:1029B000852E54E0952EA12CB12CC40186D981110D
:1029C00003C0F801A08E0AC08831D9F3FFEFAF1A17
:1029D000BF0A9394E4E0AE16B10479F7F801808D54
:1029E000843009F444C096E0E6E1F1E0DE0111969E
:1029F00001900D929A95E1F7F70193819F779C835F
:102A000094819D8395819E83B7016E5F7F4F90E097
:102A1000982F882744E050E0845F9B4F2DD9F80120
:102A2000E08CF12CF4E0EF0EF11CFE2CEE246D2D69
:102A3000C701409692D86C2DC70141968ED8F801F7
:102A4000808D90E0982F882746E050E0BE016F5FB0
:102A50007F4F8A5F9B4F10D9F801128E118E20E8AC
:102A6000A60162E0808D0E94BE0B81E001C080E083
:102A700026960FB6F894DEBF0FBECDBFDF91CF9183
:102A80001F910F91FF90EF90DF90CF90BF90AF908C
:102A90009F908F900895CF93DF93EC011B821A8251
:102AA00088EE93E0A0E0B0E08C839D83AE83BF838B
:102AB0008AE595E099838883CE010E966BD384E0F6
:102AC000888FDF91CF910895CF92DF92EF92FF929E
:102AD0000F931F93CF93DF93CDB7DEB7AF970FB6AA
:102AE000F894DEBF0FBECDBF8C016B017A01CE0121
:102AF000019650D3CE010996CEDFCE018A964AD3F5
:102B00006DED75E0CE018496BEDDBE016C5D7F4F3C
:102B1000CE01019690DAAE01465D5F4FB601CE015F
:102B20000196D3DC81309105C1F4D801ED91FC917F
:102B30000088F189E02D80E995E09DA38CA38CA508
:102B40009DA5AEA5BFA58EA39FA3A8A7B9A7A701C2
:102B5000BE016C5D7F4FC8010995AF960FB6F89422
:102B6000DEBF0FBECDBFDF91CF911F910F91FF90C0
:102B7000EF90DF90CF9008950F9300E020E040E0C9
:102B800060E08FEF95E010D30F910895CF93DF931E
:102B9000CDB7DEB7E2970FB6F894DEBF0FBECDBF5C
:102BA00068E670E0CE010196F2D7BE016F5F7F4FFD
:102BB00087E496E06BD3E2960FB6F894DEBF0FBEC3
:102BC000CDBFDF91CF910895CF92DF92EF92FF9228
:102BD0000F931F93CF93DF93CDB7DEB7EC970FB66C
:102BE000F894DEBF0FBECDBF63E573E0D7D79A83FD
:102BF00089837E0183E0E80EF11C01E010E0D02E15
:102C0000C12E63E573E080E090E0C8D7D7018D93D3
:102C10009D937D010E31110539F400910506109147
:102C20000606E980FA8008C00F5F1F4F892B39F72D
:102C3000F4CFF801048115810115110591F0F80117
:102C400060817181C701ADD7892B99F7D8011296A0
:102C5000ED91FC911397BE016F5F7F4F8D2D9C2DE1
:102C6000099594DFEC960FB6F894DEBF0FBECDBF8A
:102C7000DF91CF911F910F91FF90EF90DF90CF9058
:102C80000895AB01BC018BE096E090930A06809317
:102C90000906109208061092070626E087E496E0DF
:102CA0004AC1CF92DF92EF92FF920F931F93CF937F
:102CB000DF938C017B0186E090E01FD6EC019093BE
:102CC000060680930506F80101900020E9F7CF0180
:102CD000801B910B12D66C01B8016CD7F8010190E2
:102CE0000020E9F73197E01BF10BEC0DFD1D108280
:102CF000D982C882FB82EA828091070690910806F9
:102D00009D838C83D0930806C0930706DF91CF91F3
:102D10001F910F91FF90EF90DF90CF900895CF9388
:102D200087E496E05FD0C82F8D3019F08F3789F097
:102D300026C0E0910906F0910A06108265EE71E066
:102D400087E496E0A3D28BE096E03EDF8BE096E04E
:102D500011C08091090690910A068B509640F1F0BF
:102D6000E8F06FE787E496E092D2809109069091AF
:102D70000A06019790930A06809309060FC0682FF0
:102D800087E496E084D2E0910906F0910A06CF012B
:102D9000019690930A0680930906C083CF91089507
:102DA00087E496E005D0892B11F0B9DFF9CF0895BB
:102DB000FC01918D228D892F90E0805C9F4F821BBA
:102DC00091098F7399270895FC01918D828D981731
:102DD00031F0828DE80FF11D858D90E008958FEF21
:102DE0009FEF0895FC01918D828D981761F0828D7F
:102DF000DF01A80FB11D5D968C91928D9F5F9F732F
:102E0000928F90E008958FEF9FEF089585E598E108
:102E1000892B41F080E090E0892B21F046D181118F
:102E20000C9400000895FC01848DDF01A80FB11DF2
:102E3000A35ABF4F2C91848D90E001968F739927F0
:102E4000848FA689B7892C93A089B1898C918064DD
:102E50008C93938D848D981306C00288F389E02D9E
:102E600080818F7D80830895CF93DF93EC01888DDF
:102E70008823C1F0EA89FB89808185FD05C0A88986
:102E8000B9898C9186FD0EC00FB607FCF5CF808105
:102E900085FFF2CFA889B9898C9185FFEDCFCE014E
:102EA000C2DFE8CFDF91CF910895EF92FF920F93A9
:102EB0001F93CF93DF93EC0181E0888F9B8D8C8DE6
:102EC000981305C0E889F989808185FD23C0F62E15
:102ED0000B8D10E00F5F1F4F0F731127E02E8C8DAD
:102EE000E8120BC00FB607FCFACFE889F989808198
:102EF00085FFF5CFCE0197DFF2CF8B8DFE01E80F76
:102F0000F11DE35AFF4FF0820B8FEA89FB89808124
:102F1000806207C0EE89FF896083E889F989808132
:102F20008064808381E090E0DF91CF911F910F91C9
:102F3000FF90EF900895CF92DF92EF92FF921F9350
:102F4000CF93DF93EC016A017B01122FE889F989A5
:102F500082E080834115514E61057105A9F060E062
:102F600079E08DE390E0A70196019FD4DA01C901D1
:102F70000197A109B109B695A79597958795AC01D9
:102F8000411580E15807A0F0E889F989108260E8CE
:102F900074E88EE190E0A701960187D4BA01A901F7
:102FA0004150510961097109769567955795479583
:102FB000EC85FD855083EE85FF854083188EEC8976
:102FC000FD891083EA89FB89808180618083EA8999
:102FD000FB89808188608083EA89FB8980818068A1
:102FE0008083EA89FB8980818F7D8083DF91CF9107
:102FF0001F91FF90EF90DF90CF9008951F920F9256
:103000000FB60F9211242F938F939F93EF93FF93FB
:10301000E0915706F09158068081E0915D06F091AD
:103020005E0682FD12C09081809160068F5F8F7373
:1030300020916106821751F0E0916006F0E0E95BB3
:10304000F94F958F8093600601C08081FF91EF91C9
:103050009F918F912F910F900FBE0F901F901895F9
:103060001F920F920FB60F9211242F933F934F93FD
:103070005F936F937F938F939F93AF93BF93EF93E0
:10308000FF9387E496E0CFDEFF91EF91BF91AF9180
:103090009F918F917F916F915F914F913F912F9170
:1030A0000F900FBE0F901F90189587E496E080DE7A
:1030B00021E0892B09F420E0822F0895E7E4F6E06F
:1030C0001382128288EE93E0A0E0B0E084839583BF
:1030D000A683B78380E895E09183808385EC90E0B8
:1030E0009587848784EC90E09787868780EC90E0D2
:1030F000918B808B81EC90E0938B828B82EC90E0C3
:10310000958B848B86EC90E0978B868B118E128E3C
:10311000138E148E08958F929F92AF92BF92CF928A
:10312000DF92EF92FF920F931F93CF93DF937C0177
:103130008B016C0182E0C80ED11C4701E5E08E0EC8
:10314000911CC0E0D0E0F60161916F014AE050E0CF
:10315000C80166D15C016EE2C80199D08A0D9B1D41
:10316000C80FD91FC814D90471F74AE050E0F7011D
:103170006581C80155D18C0F9D1FDF91CF911F91A3
:103180000F91FF90EF90DF90CF90BF90AF909F9006
:103190008F90089520E935E0FC013183208312826D
:1031A00013821482158208950F93FC0180E995E043
:1031B0009183808362834383248305830F910895E1
:1031C00020E935E0FC0131832083FB0140815181FE
:1031D00062817381FC014283538364837583089504
:1031E000FB014081518162817381FC0142835383E1
:1031F000648375830895E4EEF6E080E995E09183B9
:10320000808312821382148215820895CF92DF92F6
:10321000EF92FF920F931F93CF93DF936C017A018C
:103220008B01C0E0D0E0CE15DF0589F0D8016D91AB
:103230008D01D601ED91FC910190F081E02DC60148
:103240000995892B11F47E0102C02196ECCFC701AC
:10325000DF91CF911F910F91FF90EF90DF90CF9072
:1032600008956115710579F0FB0101900020E9F7DF
:103270003197AF01461B570BDC01ED91FC910280A9
:10328000F381E02D099480E090E00895EACFDC011D
:10329000ED91FC910190F081E02D099465EE71E0D3
:1032A000E0CF0F931F93CF93DF93EC01DADF8C0114
:1032B000CE01F4DF800F911FDF91CF911F910F910D
:1032C00008954F925F926F927F92EF92FF920F93C9
:1032D0001F93CF93DF93CDB7DEB7A1970FB6F894C6
:1032E000DEBF0FBECDBF7C01FA01CB0119A2223097
:1032F00008F42AE08E010F5D1F4F422E512C612CE5
:10330000712CBF01A3019201D0D2F901CA01015071
:1033100011096A3014F4605D01C0695CD8016C93D6
:10332000232B242B252B69F7B801C7019ADFA1961F
:103330000FB6F894DEBF0FBECDBFDF91CF911F91C6
:103340000F91FF90EF907F906F905F904F90089556
:10335000CF92DF92EF92FF920F931F93CF93DF9361
:10336000EC016A017B012115310579F4E881F981CD
:103370000190F081E02D642FDF91CF911F910F918B
:10338000FF90EF90DF90CF9009942A303105D9F467
:1033900077FF18C06DE27BDF8C0144275527BA0107
:1033A0004C195D096E097F092AE0CE018ADF800F82
:1033B000911FDF91CF911F910F91FF90EF90DF90C0
:1033C000CF9008952AE0B701A601CE01DF91CF91F9
:1033D0001F910F91FF90EF90DF90CF9072CF0F93DE
:1033E0001F93CF93DF93EC019A01AB01770F660B2C
:1033F000770BAEDF8C01CE0151DF800F911FDF9183
:10340000CF911F910F9108952115310541F4DC01F1
:10341000ED91FC910190F081E02D642F099451CF42
:103420009A01462F50E060E070E0EECF0F931F93BB
:10343000CF93DF93EC019A01462F50E060E070E0FB
:10344000E3DF8C01CE012ADF800F911FDF91CF9146
:103450001F910F91089570E09B01382BC9010895C9
:1034600008950895C0D0FDDF0E94DE04C6E0D7E1D4
:103470000E9445042097E1F3C9DCFACF3EC21F92B7
:103480000F920FB60F9211242F933F938F939F9318
:10349000AF93BF938091EB069091EC06A091ED065F
:1034A000B091EE063091EA0623E0230F2D3720F489
:1034B0000196A11DB11D05C026E8230F0296A11D8E
:1034C000B11D2093EA068093EB069093EC06A0933F
:1034D000ED06B093EE068091EF069091F006A09174
:1034E000F106B091F2060196A11DB11D8093EF0681
:1034F0009093F006A093F106B093F206BF91AF91BE
:103500009F918F913F912F910F900FBE0F901F9021
:1035100018952FB7F8946091EB067091EC068091A6
:10352000ED069091EE062FBF08953FB7F894809175
:10353000EF069091F006A091F106B091F20626B543
:10354000A89B05C02F3F19F00196A11DB11D3FBFDB
:10355000BA2FA92F982F8827820F911DA11DB11D69
:10356000BC01CD0142E0660F771F881F991F4A9565
:10357000D1F708958F929F92AF92BF92CF92DF9230
:10358000EF92FF926B017C01D0DF4B015C01C11413
:10359000D104E104F104F1F063DFC7DFDC01CB010A
:1035A00088199909AA09BB09883E9340A105B1056C
:1035B00070F321E0C21AD108E108F10888EE880E04
:1035C00083E0981EA11CB11CC114D104E104F104D4
:1035D00021F7DDCFFF90EF90DF90CF90BF90AF90BD
:1035E0009F908F900895789484B5826084BD84B54F
:1035F000816084BD85B5826085BD85B5816085BDEE
:10360000EEE6F0E0808181608083E1E8F0E0108206
:10361000808182608083808181608083E0E8F0E047
:10362000808181608083E1EBF0E080818460808331
:10363000E0EBF0E0808181608083EAE7F0E0808168
:1036400084608083808182608083808181608083C8
:103650008081806880831092C1000895833081F05A
:1036600028F4813099F08230A1F008958730A9F0D4
:103670008830B9F08430D1F4809180008F7D03C010
:10368000809180008F7780938000089584B58F7734
:1036900002C084B58F7D84BD08958091B0008F777E
:1036A00003C08091B0008F7D8093B0000895CF93C8
:1036B000DF9390E0FC01EB57FF4F2491FC01E756AC
:1036C000FF4F8491882361F190E0880F991FFC01DE
:1036D000EF53FF4FC591D491FC01E954FF4FA591E1
:1036E000B491611109C09FB7F89488812095822315
:1036F0008883EC912E230BC0623061F49FB7F8945D
:103700003881822F809583238883EC912E2B2C93F4
:103710009FBF06C08FB7F894E8812E2B28838FBFF8
:10372000DF91CF9108951F93CF93DF93282F30E03F
:10373000F901EF58FF4F8491F901EB57FF4FD491F6
:10374000F901E756FF4FC491CC23C1F0162F811128
:1037500085DFEC2FF0E0EE0FFF1FE954FF4FA5913E
:10376000B4918FB7F894111105C09C91ED2FE0959D
:10377000E92302C0EC91ED2BEC938FBFDF91CF9149
:103780001F9108954F925F926F927F928F929F92B6
:10379000AF92BF92CF92DF92EF92FF920F931F935F
:1037A000CF93DF9369017A0190E0FC01EB57FF4F63
:1037B0001491FC01E756FF4FC491662311F0012FCD
:1037C00001C000E0B2DE4B015C01D0E0CC0FDD1F98
:1037D000C355DF4FFE01A591B4918C9181238013D5
:1037E0001CC0A3DEDC01CB0188199909AA09BB0919
:1037F000C816D906EA06FB0668F760E070E0CB0160
:103800002FC093DEDC01CB0188199909AA09BB09F5
:10381000C816D906EA06FB0680F3FE01A591B4910D
:103820008C9181238013EDCF80DE2B013C01FE01C2
:10383000A591B4918C91812380130DC076DEDC01BB
:10384000CB0188199909AA09BB09C816D906EA0645
:10385000FB0668F7D2CF69DE6419750986099709F6
:10386000DF91CF911F910F91FF90EF90DF90CF905C
:10387000BF90AF909F908F907F906F905F904F9090
:103880000895AA1BBB1B51E107C0AA1FBB1FA617A7
:10389000B70710F0A61BB70B881F991F5A95A9F7F9
:1038A00080959095BC01CD010895A1E21A2EAA1B26
:1038B000BB1BFD010DC0AA1FBB1FEE1FFF1FA217E0
:1038C000B307E407F50720F0A21BB30BE40BF50BDD
:1038D000661F771F881F991F1A9469F76095709566
:1038E000809590959B01AC01BD01CF010895EE0F2D
:1038F000FF1F0590F491E02D0994CF93DF93823060
:10390000910510F482E090E0E091F506F091F60662
:1039100020E030E0C0E0D0E0309711F140815181EB
:1039200048175907C0F04817590761F482819381FD
:10393000209719F09B838A832BC09093F60680937F
:10394000F50626C02115310519F04217530718F462
:103950009A01BE01DF01EF010280F381E02DDCCF8F
:103960002115310509F1281B390B2430310590F45C
:1039700012968D919C9113976115710521F0FB01B1
:103980009383828304C09093F6068093F506FD012D
:10399000329644C0FD01E20FF31F819391932250B0
:1039A00031092D933C933AC02091F3063091F406EF
:1039B000232B41F420910201309103013093F4064E
:1039C0002093F3062091000130910101211531056A
:1039D00041F42DB73EB74091040150910501241BDD
:1039E000350BE091F306F091F406E217F307A0F42B
:1039F0002E1B3F0B2817390778F0AC014E5F5F4F45
:103A00002417350748F04E0F5F1F5093F40640937C
:103A1000F3068193919302C0E0E0F0E0CF01DF91E3
:103A2000CF9108950F931F93CF93DF93009709F4DD
:103A30008CC0FC013297138212820091F50610911E
:103A4000F6060115110581F420813181820F931F43
:103A50002091F3063091F4062817390779F5F09391
:103A6000F406E093F30671C0D80140E050E0AE17D1
:103A7000BF0750F412962D913C911397AD0121157B
:103A8000310509F1D901F3CF9D01DA013383228396
:103A900060817181860F971F8217930769F4EC018B
:103AA00028813981260F371F2E5F3F4F31832083B6
:103AB0008A819B8193838283452B29F4F093F606B8
:103AC000E093F50642C01396FC93EE931297ED0136
:103AD000499159919E01240F351FE217F30771F4A4
:103AE00080819181840F951F029611969C938E93ED
:103AF0008281938113969C938E931297E0E0F0E07D
:103B0000D80112968D919C911397009719F0F801A6
:103B10008C01F6CF8D919C9198012E5F3F4F820FC3
:103B2000931F2091F3063091F4062817390769F4A2
:103B3000309729F41092F6061092F50602C013820F
:103B400012821093F4060093F306DF91CF911F9138
:103B50000F910895FC0188279927E894219120323C
:103B6000E9F3293010F02E30C8F32B3239F02D3222
:103B700031F4689403C04CD0820F911D21912053E1
:103B80002A30C8F31EF4909581959F4F0895FB014C
:103B9000DC0105900D920020E1F708954EE955E013
:103BA00010C0FB01DC018D91019080190110D9F347
:103BB000990B0895FB01DC0101900D920020E1F7C3
:103BC0000895FA01A191B081009719F41097E1F0DE
:103BD000CD01DC01CD010D90002011F4C00113C016
:103BE000FB012191222319F02015D9F7F3CFFB0116
:103BF0002191201519F41E92119606C02223C1F7B7
:103C00000D900020A1F7D001FA01A193B08308958F
:103C10007AE0979F902D879F802D910D1124089514
:103C2000AEE0B0E0E5E1FEE1D7C20D891E8986E095
:103C30008C831A8309838FEF9FE79E838D83AE0168
:103C4000475E5F4F6F89788DCE01019632D02F810C
:103C50003885F801E20FF31F10822E96E4E0D8C2F7
:103C6000AEE0B0E0E5E3FEE1B7C28C01CA0146E098
:103C70004C831A83098377FF02C060E070E8FB0180
:103C80003197FE83ED83A901BC01CE01019611D0CD
:103C90004D815E8157FD0AC02F8138854217530739
:103CA0000CF49A01F801E20FF31F10822E96E4E063
:103CB000AFC2ACE0B0E0EEE5FEE180C27C016B019A
:103CC0008A01FC0117821682838181FFB0C1CE0177
:103CD00001964C01F7019381F60193FD859193FFC5
:103CE00081916F01882309F49EC1853239F493FDD7
:103CF000859193FF81916F01853221F4B70190E0A6
:103D0000B1D1E8CF512C312C20E02032A0F48B32FD
:103D100069F030F4803259F0833269F420612CC0AC
:103D20008D3239F0803339F4216026C0226024605E
:103D300023C0286021C027FD27C030ED380F3A305E
:103D400078F426FF06C0FAE05F9E300D1124532E52
:103D500013C08AE0389E300D1124332E20620CC02F
:103D60008E3221F426FD5FC1206406C08C3611F42A
:103D7000206802C0883641F4F60193FD859193FFD7
:103D800081916F018111C1CF982F9F7D9554933000
:103D900028F40C5F1F4FFFE3F9830DC0833631F029
:103DA000833771F0833509F057C021C0F801808155
:103DB00089830E5F1F4F44244394512C540114C037
:103DC0003801F2E06F0E711CF801A080B18026FF6F
:103DD00003C0652D70E002C06FEF7FEFC5012C8737
:103DE00036D12C0183012C852F77222E16C0380165
:103DF000F2E06F0E711CF801A080B18026FF03C0B5
:103E0000652D70E002C06FEF7FEFC5012C8714D1E4
:103E10002C012C852068222E830123FC19C0832DC0
:103E200090E048165906A0F4B70180E290E01AD15C
:103E30003A94F5CFF50127FC859127FE81915F012A
:103E4000B70190E00FD131103A94F1E04F1A5108C8
:103E50004114510479F7DEC0843611F0893631F50A
:103E6000F80127FF07C060817181828193810C5F17
:103E70001F4F08C060817181072E000C880B990BC1
:103E80000E5F1F4F2F76722E97FF09C09095809579
:103E9000709561957F4F8F4F9F4F2068722E2AE05B
:103EA00030E0A40117D1A82EA81843C0853729F403
:103EB0002F7EB22E2AE030E025C0F22FF97FBF2EF0
:103EC0008F36C1F018F4883579F0ADC0803719F01D
:103ED000883721F0A8C02F2F2061B22EB4FE0DC06C
:103EE0008B2D8460B82E09C024FF0AC09F2F9660D6
:103EF000B92E06C028E030E005C020E130E002C065
:103F000020E132E0F801B7FE07C060817181828153
:103F100093810C5F1F4F06C06081718180E090E04B
:103F20000E5F1F4FA401D6D0A82EA818FB2DFF7737
:103F30007F2E76FE0BC0372D3E7FA51450F474FE05
:103F40000AC072FC08C0372D3E7E05C0BA2C372D42
:103F500003C0BA2C01C0B52C34FF0DC0FE01EA0D20
:103F6000F11D8081803311F4397E09C032FF06C013
:103F7000B394B39404C0832F867809F0B39433FDCF
:103F800012C030FF06C05A2CB31418F4530C5B183F
:103F9000B32CB31460F4B70180E290E03C8762D0A8
:103FA000B3943C85F6CFB31410F43B1801C0312C08
:103FB00034FF11C0B70180E390E03C8753D03C85CB
:103FC00032FF16C031FD03C088E790E002C088E5EB
:103FD00090E0B7010CC0832F867851F031FF02C00A
:103FE0008BE201C080E237FD8DE2B70190E03AD06C
:103FF000A51430F4B70180E390E034D05A94F8CFA0
:10400000AA94F401EA0DF11D8081B70190E02AD055
:10401000A110F6CF332009F45DCEB70180E290E025
:1040200021D03A94F7CFF7018681978102C08FEFB4
:104030009FEF2C96E2E1DEC0FC01059061507040DC
:104040000110D8F7809590958E0F9F1F0895FC0161
:104050006150704001900110D8F7809590958E0FB7
:104060009F1F08950F931F93CF93DF93FB0123812D
:1040700021FD03C08FEF9FEF28C022FF16C04681AD
:104080005781248135814217530744F4A081B181BF
:104090009D012F5F3F4F318320838C932681378191
:1040A0002F5F3F4F3783268310C0EB01092F182F56
:1040B0000084F185E02D0995892BE1F68E819F81A1
:1040C00001969F838E83812F902FDF91CF911F9137
:1040D0000F910895FA01AA27283051F1203181F17A
:1040E000E8946F936E7F6E5F7F4F8F4F9F4FAF4F00
:1040F000B1E03ED0B4E03CD0670F781F891F9A1F13
:10410000A11D680F791F8A1F911DA11D6A0F711DC6
:10411000811D911DA11D20D009F468943F912AE0D2
:10412000269F11243019305D3193DEF6CF010895BA
:10413000462F4770405D4193B3E00FD0C9F7F6CFEB
:10414000462F4F70405D4A3318F0495D31FD4052B3
:10415000419302D0A9F7EACFB4E0A6959795879549
:1041600077956795BA95C9F7009761057105089528
:104170009B01AC010A2E06945795479537952795D4
:10418000BA95C9F7620F731F841F951FA01D08956C
:10419000F999FECF92BD81BDF89A992780B508950F
:1041A000262FF999FECF1FBA92BD81BD20BD0FB653
:1041B000F894FA9AF99A0FBE019608952F923F92B9
:1041C0004F925F926F927F928F929F92AF92BF9227
:1041D000CF92DF92EF92FF920F931F93CF93DF93D3
:1041E000CDB7DEB7CA1BDB0B0FB6F894DEBF0FBE30
:1041F000CDBF09942A88398848885F846E847D847D
:104200008C849B84AA84B984C884DF80EE80FD807E
:104210000C811B81AA81B981CE0FD11D0FB6F894F4
:0E422000DEBF0FBECDBFED010895F894FFCFB5
:10422E000000F7068000010000001F1C1F1E1F1E4D
:10423E001F1F1E1F1E1F01005E00000057726F6EB3
:10424E006720444E53206164647265737320666FF9
:10425E00726D61742E0057726F6E67204950206127
:10426E0064647265737320666F726D61742E00578D
:10427E00726F6E67207375626E657420666F726DF5
:10428E0061742E0057726F6E672067617465776177
:10429E007920666F726D61742E004176616C696172
:1042AE00626C6520636F6D6D616E64733A0A002DEA
:1042BE002075706461746520697020616464726534
:1042CE0073732C207375626E657420616E64206743
:1042DE006174657761790A006970736574203C6159
:1042EE006464726573733E203C7375626E65743ED2
:1042FE00203C676174657761793E00252D343273F9
:10430E00252D3634730D0A002D2075706461746589
:10431E0020646E73207365727665722061646472B8
:10432E006573730A00646E73736574203C61646414
:10433E00726573733E002D2073686F7720696E6609
:10434E006F726D6174696F6E0A006970636F6E666D
:10435E006967002D20636F6E6669677572652069E7
:10436E0072696720706172616D65746572730A009F
:10437E006972696720636F6E666967002D207072BF
:10438E00696E7473206972696720706172616D6500
:10439E00746572730A00697269672073746174754B
:1043AE0073002D206578697420636F6E666967757A
:1043BE00726174696F6E206D656E750A006578693D
:1043CE0074002D2073686F772074686973206D6593
:1043DE006E750A0068656C702C203F004172647522
:1043EE00696E6F20495020436F6E66696775726102
:1043FE0074696F6E0A0045746865726E6574205339
:10440E006869656C6420416461707465720A0009A4
:10441E004D414320416464726573733A2000252D2B
:10442E00323573252D32732532582D2532582D25D0
:10443E0032582D2532582D2532582D2532580A0046
:10444E00094950763420416464726573733A2000D2
:10445E00252D323573252D327325642E25642E2598
:10446E00642E25640A00095375626E6574204D61D1
:10447E00736B3A20000944656661756C7420476160
:10448E0074657761793A200009444E532053657262
:10449E007665723A200057726F6E672072656D6F87
:1044AE007465204950206164647265737320666F71
:1044BE00726D61742E0049524947205374617475B0
:1044CE00733A0052656D6F74652061646472657332
:1044DE00733A200052656D6F746520706F72743A76
:1044EE0020002535640A0042444E3B002573257397
:1044FE0025730068656C7000697073657400646E76
:10450E007373657400697269670050726573732006
:10451E003C454E5445523E20746F20656E74657254
:10452E002074686520636F6E666967757261746961
:10453E006F6E206D656E752E0A0A0053746172746B
:10454E00696E6720495249472D42206C6973746524
:10455E006E657220696E2E2E2E00495249472D42ED
:10456E00204C697374656E65722073746172746524
:10457E00642E205072657373203C52455345543E51
:10458E00206F6E20686172647761726520626F6160
:10459E00726420746F20696E746572727570742EF9
:1045AE000057656C636F6D6520746F204172647582
:1045BE00696E6F20436F6E66696775726174696F9D
:1045CE006E21200A0A004E657420496E6974696175
:1045DE006C697A65642E002533307300253034649F
:1045EE002D253032642D2530326420253032643A48
:1045FE00253032643A25303264006672616D655F33
:10460E006572726F72207365636F6E64730066728B
:10461E00616D655F6572726F72206D696E7574651E
:10462E0073006672616D655F6572726F7220686F7E
:10463E00757273006672616D655F6572726F72205E
:10464E006461797320706172742031006672616DDD
:10465E00655F6572726F722064617973207061722A
:10466E00742032006672616D655F6572726F7220C2
:10467E00796561727300000000009213C8138E13E7
:10468E00DB132214A8133A14A913BE136415C51311
:10469E006714031473137A138A13BE1400000000F8
:1046AE0055170619D816F216E41634170000000036
:0E46BE008B186E616E00696E66006F76660086
:00000001FF
